:020000040800F2
:1000000000000120913A0008D5370008DB370008CE
:10001000E1370008E7370008ED370008000000006E
:10002000000000000000000000000000F33700089E
:1000300001380008000000000F3800081D380008D3
:10004000E13A0008E13A0008E13A0008E13A000824
:10005000E13A0008E13A000829380008373800087A
:10006000453800085338000861380008E13A0008B4
:10007000E13A0008E13A0008E13A0008E13A0008F4
:10008000E13A0008E13A0008E13A00080000000007
:100090000000000000000000000000006F380008B1
:1000A000E13A0008E13A0008E13A0008E13A0008C4
:1000B000E13A000885380008E13A0008E13A000812
:1000C000E13A0008E13A0008E13A0008E13A0008A4
:1000D00099380008AD380008E13A00080000000037
:1000E000C1380008E13A0008E13A000800000000C9
:1000F000000000000000000000000000E13A0008DD
:1001000000000000E13A0008E13A0008E13A000886
:1001100000000000000000000000000000000000DF
:10012000E13A0008E13A0008E13A0008E13A000843
:10013000E13A00080000000000000000000000009C
:10014000000000000000000000000000E13A00088C
:10015000E13A0008E13A0008E13A0008E13A000813
:10016000E13A0008E13A0008000000000000000049
:10017000000000000000000000000000000000007F
:1001800000000000E13A000800000000000000004C
:04019000E13A000848
:1001A00010B5054C237833B9044B13B10448AFF3B1
:1001B00000800123237010BDC4090020000000004E
:1001C00080FB000808B5034B1BB103490348AFF39C
:1001D000008008BD00000000C809002080FB000866
:1001E000034613F8012B002AFBD1181A0138704777
:1001F00001F0FF01102A2BDB10F0070F08D010F8D8
:10020000013B013A8B422DD010F0070F42B3F6D1DB
:10021000F0B441EA012141EA014122F007047FF0F4
:1002200000070023F0E80256083C85EA010586EA4B
:10023000010685FA47F5A3FA87F586FA47F6A5FA87
:1002400087F68EB9EED1F0BC01F0FF0102F0070293
:1002500032B110F8013B013A83EA010313B1F8D13E
:100260000020704701387047002D06BF354603381F
:10027000073815F0010F07D1013015F4807F02BF58
:10028000013015F4C03F0130F0BC0138704700BFA9
:1002900081F0004102E000BF83F0004330B54FEA37
:1002A00041044FEA430594EA050F08BF90EA020FA4
:1002B0001FBF54EA000C55EA020C7FEA645C7FEA37
:1002C000655C00F0E2804FEA5454D4EB5555B8BF5A
:1002D0006D420CDD2C4480EA020281EA030382EACB
:1002E000000083EA010180EA020281EA0303362D5D
:1002F00088BF30BD11F0004F4FEA01314FF4801C30
:100300004CEA113102D0404261EB410113F0004F41
:100310004FEA03334CEA133302D0524263EB4303F8
:1003200094EA050F00F0A780A4F10104D5F1200E96
:100330000DDB02FA0EFC22FA05F2801841F10001F1
:1003400003FA0EF2801843FA05F359410EE0A5F1C5
:1003500020050EF1200E012A03FA0EFC28BF4CF0F6
:10036000020C43FA05F3C01851EBE37101F00045AC
:1003700007D54FF0000EDCF1000C7EEB00006EEBB9
:100380000101B1F5801F1BD3B1F5001F0CD3490843
:100390005FEA30004FEA3C0C04F101044FEA44529A
:1003A00012F5800F80F09A80BCF1004F08BF5FEA21
:1003B000500C50F1000041EB045141EA050130BD01
:1003C0005FEA4C0C404141EB0101013C28BFB1F513
:1003D000801FE9D291F0000F04BF01460020B1FA5E
:1003E00081F308BF2033A3F10B03B3F120020CDA31
:1003F0000C3208DD02F1140CC2F10C0201FA0CF00F
:1004000021FA02F10CE002F11402D8BFC2F1200C73
:1004100001FA02F120FA0CFCDCBF41EA0C01904029
:10042000E41AA2BF01EB0451294330BD6FEA040472
:100430001F3C1CDA0C340EDC04F11404C4F120025D
:1004400020FA04F001FA02F340EA030021FA04F36F
:1004500045EA030130BDC4F10C04C4F1200220FAC6
:1004600002F001FA04F340EA0300294630BD21FA04
:1004700004F0294630BD94F0000F83F4801306BFCA
:1004800081F480110134013D4EE77FEA645C18BFBE
:100490007FEA655C29D094EA050F08BF90EA020F55
:1004A00005D054EA000C04BF1946104630BD91EA4D
:1004B000030F1EBF0021002030BD5FEA545C05D150
:1004C0004000494128BF41F0004130BD14F580048F
:1004D0003CBF01F5801130BD01F0004545F0FE4103
:1004E00041F470014FF0000030BD7FEA645C1ABF38
:1004F000194610467FEA655C1CBF0B46024650EA6F
:10050000013406BF52EA033591EA030F41F400219A
:1005100030BD00BF90F0000F04BF0021704730B520
:100520004FF4806404F132044FF000054FF00001F5
:1005300050E700BF90F0000F04BF0021704730B5B6
:100540004FF4806404F1320410F0004548BF40428B
:100550004FF000013EE700BF42004FEAE2014FEAE0
:1005600031014FEA02701FBF12F07F4393F07F4FBB
:1005700081F06051704732F07F4208BF704793F0BE
:100580007F4F04BF41F40021704730B54FF46074D1
:1005900001F0004521F000411CE700BF50EA0102D4
:1005A00008BF704730B54FF000050AE050EA01027D
:1005B00008BF704730B511F0004502D5404261EBED
:1005C00041014FF4806404F132045FEA915C3FF42E
:1005D000D8AE4FF003025FEADC0C18BF03325FEACB
:1005E000DC0C18BF033202EBDC02C2F1200300FA7C
:1005F00003FC20FA02F001FA03FE40EA0E0021FAA1
:1006000002F11444BDE600BF70B54FF0FF0C4CF48E
:10061000E06C1CEA11541DBF1CEA135594EA0C0F40
:1006200095EA0C0F00F0DEF82C4481EA030621EA7B
:100630004C5123EA4C5350EA013518BF52EA0335B6
:1006400041F4801143F4801338D0A0FB02CE4FF068
:100650000005E1FB02E506F00042E0FB03E54FF098
:100660000006E1FB03569CF0000F18BF4EF0010E90
:10067000A4F1FF04B6F5007F64F5407404D25FEA8C
:100680004E0E6D4146EB060642EAC62141EA55513F
:100690004FEAC52040EA5E504FEACE2EB4F1FD0C81
:1006A00088BFBCF5E06F1ED8BEF1004F08BF5FEAFF
:1006B000500E50F1000041EB045170BD06F00046B1
:1006C00046EA010140EA020081EA0301B4EB5C045E
:1006D000C2BFD4EB0C0541EA045170BD41F4801156
:1006E0004FF0000E013C00F3AB8014F1360FDEBF7B
:1006F000002001F0004170BDC4F10004203C35DA57
:100700000C341BDC04F11404C4F1200500FA05F3D9
:1007100020FA04F001FA05F240EA020001F000427A
:1007200021F0004110EBD37021FA04F642EB0601F0
:100730005EEA430E08BF20EAD37070BDC4F10C041A
:10074000C4F1200500FA04F320FA05F001FA04F2DE
:1007500040EA020001F0004110EBD37041F10001CA
:100760005EEA430E08BF20EAD37070BDC4F12005D5
:1007700000FA05F24EEA020E20FA04F301FA05F23D
:1007800043EA020321FA04F001F0004121FA04F2E5
:1007900020EA020000EBD3705EEA430E08BF20EAB5
:1007A000D37070BD94F0000F0FD101F000464000EF
:1007B00041EB010111F4801F08BF013CF7D041EA71
:1007C000060195F0000F18BF704703F00046520075
:1007D00043EB030313F4801F08BF013DF7D043EA46
:1007E0000603704794EA0C0F0CEA135518BF95EAFC
:1007F0000C0F0CD050EA410618BF52EA4306D1D183
:1008000081EA030101F000414FF0000070BD50EAA1
:10081000410606BF1046194652EA430619D094EA2B
:100820000C0F02D150EA013613D195EA0C0F05D115
:1008300052EA03361CBF104619460AD181EA030169
:1008400001F0004141F0FE4141F470014FF0000021
:1008500070BD41F0FE4141F4780170BD70B54FF0BC
:10086000FF0C4CF4E06C1CEA11541DBF1CEA13553C
:1008700094EA0C0F95EA0C0F00F0A7F8A4EB05041E
:1008800081EA030E52EA03354FEA013100F0888015
:100890004FEA03334FF0805545EA131343EA1263DE
:1008A0004FEA022245EA111545EA10654FEA002693
:1008B0000EF000419D4208BF964244F1FD0404F54C
:1008C000407402D25B084FEA3202B61A65EB0305A8
:1008D0005B084FEA32024FF480104FF4002CB6EB65
:1008E000020E75EB030E22BFB61A754640EA0C00E5
:1008F0005B084FEA3202B6EB020E75EB030E22BF25
:10090000B61A754640EA5C005B084FEA3202B6EB65
:10091000020E75EB030E22BFB61A754640EA9C0024
:100920005B084FEA3202B6EB020E75EB030E22BFF4
:10093000B61A754640EADC0055EA060E18D04FEAB2
:10094000051545EA16754FEA06164FEAC30343EA52
:1009500052734FEAC2025FEA1C1CC0D111F4801F1F
:100960000BD141EA00014FF000004FF0004CB6E718
:1009700011F4801F04BF01430020B4F1FD0C88BFB7
:10098000BCF5E06F3FF6AFAEB5EB030C04BFB6EBC2
:10099000020C5FEA500C50F1000041EB045170BDB5
:1009A0000EF0004E4EEA113114EB5C04C2BFD4EBE2
:1009B0000C0541EA045170BD41F480114FF0000E66
:1009C000013C90E645EA060E8DE60CEA135594EAE2
:1009D0000C0F08BF95EA0C0F3FF43BAF94EA0C0FE5
:1009E0000AD150EA01347FF434AF95EA0C0F7FF45A
:1009F00025AF104619462CE795EA0C0F06D152EAAE
:100A000003353FF4FDAE1046194622E750EA410691
:100A100018BF52EA43067FF4C5AE50EA41047FF4A2
:100A20000DAF52EA43057FF4EBAE12E74FF0FF3C07
:100A300006E000BF4FF0010C02E000BF4FF0010CD8
:100A40004DF804CD4FEA410C7FEA6C5C4FEA430C51
:100A500018BF7FEA6C5C1BD001B050EA410C0CBFA0
:100A600052EA430C91EA030F02BF90EA020F002002
:100A7000704710F1000F91EA030F58BF994208BF69
:100A800090422CBFD8176FEAE37040F00100704726
:100A90004FEA410C7FEA6C5C02D150EA013C07D17D
:100AA0004FEA430C7FEA6C5CD6D152EA033CD3D0C8
:100AB0005DF8040B704700BF8446104662468C46C2
:100AC0001946634600E000BF01B5FFF7B7FF0028F5
:100AD00048BF10F1000F01BD4DF808EDFFF7F4FF1E
:100AE0000CBF012000205DF808FB00BF4DF808EDA9
:100AF000FFF7EAFF34BF012000205DF808FB00BFCC
:100B00004DF808EDFFF7E0FF94BF012000205DF8ED
:100B100008FB00BF4DF808EDFFF7CEFF94BF0120A2
:100B200000205DF808FB00BF4DF808EDFFF7C4FF9B
:100B300034BF012000205DF808FB00BF4FEA410CE4
:100B40007FEA6C5C02D150EA013C0AD14FEA430CC7
:100B50007FEA6C5C02D152EA033C02D14FF0000004
:100B600070474FF0010070474FEA410212F5001242
:100B700015D211D56FF47873B3EB625212D94FEAE4
:100B8000C12343F0004343EA505311F0004F23FACE
:100B900002F018BF404270474FF00000704750EA23
:100BA000013005D111F0004008BF6FF000407047E0
:100BB0004FF00000704700BF4A0011D212F500123A
:100BC00011D20DD56FF47873B3EB62520ED44FEAA5
:100BD000C12343F0004343EA505323FA02F0704725
:100BE0004FF00000704750EA013002D14FF0FF3063
:100BF00070474FF0000070474FEA4102B2F1E04306
:100C000024BFB3F5001CDCF1FE5C0DD901F0004CF3
:100C10004FEAC0024CEA5070B2F1004F40EB830043
:100C200008BF20F00100704711F0804F21D113F16F
:100C30003872BCBF01F00040704741F480114FEAA8
:100C40005252C2F11802C2F1200C10FA0CF320FA31
:100C500002F018BF40F001004FEAC1234FEAD3234E
:100C600003FA0CFC40EA0C0023FA02F34FEA4303B8
:100C7000CCE77FEA625307D150EA01331EBF4FF041
:100C8000FE4040F44000704701F0004040F0FE405C
:100C900040F40000704700BF53B94AB9002908BFAB
:100CA00000281CBF4FF0FF314FF0FF3000F0AAB911
:100CB000ADF1080C6DE904CE00F03CF8DDF804E07D
:100CC000DDE9022304B0704738B500220023044652
:100CD0000D46FFF70BFF28B920462946BDE83840EE
:100CE00000F00AB8204605F1004100F005F8404246
:100CF00061EB410138BD00BFD0B50C4B0022064668
:100D00000F46FFF781FCFFF757FF0446FFF702FC91
:100D1000074B0022FFF778FC02460B463046394667
:100D2000FFF7BAFAFFF748FF2146D0BD0000F03DBB
:100D30000000F0412DE9F047089D04468E46002B47
:100D40004DD18A42944669D9B2FA82F252B101FA7F
:100D500002F3C2F1200120FA01F10CFA02FC41EA8F
:100D6000030E94404FEA1C48210CBEFBF8F61FFA14
:100D70008CF708FB16E341EA034306FB07F19942AF
:100D80000AD91CEB030306F1FF3080F01F81994262
:100D900040F21C81023E63445B1AA4B2B3FBF8F03C
:100DA00008FB103344EA034400FB07F7A7420AD9C3
:100DB0001CEB040400F1FF3380F00A81A74240F2EB
:100DC00007816444023840EA0640E41B00261DB156
:100DD000D4400023C5E900433146BDE8F0878B428B
:100DE00009D9002D00F0EF800026C5E9000130464A
:100DF0003146BDE8F087B3FA83F6002E4AD18B4224
:100E000002D3824200F2F980841A61EB03030120CD
:100E10009E46002DE0D0C5E9004EDDE702B9FFDEB9
:100E2000B2FA82F2002A40F09280A1EB0C014FEA64
:100E30001C471FFA8CFE0126200CB1FBF7F307FBC1
:100E4000131140EA01410EFB03F0884208D91CEB64
:100E5000010103F1FF3802D2884200F2CB80434601
:100E6000091AA4B2B1FBF7F007FB101144EA0144E0
:100E70000EFB00FEA64508D91CEB040400F1FF316F
:100E800002D2A64500F2BB800846A4EB0E0440EA5D
:100E900003409CE7C6F12007B34022FA07FC4CEA66
:100EA000030C20FA07F401FA06F31C43F9404FEA59
:100EB0001C4900FA06F3B1FBF9F8200C1FFA8CFE6E
:100EC00009FB181140EA014108FB0EF0884202FAC2
:100ED00006F20BD91CEB010108F1FF3A80F0888083
:100EE000884240F28580A8F102086144091AA4B240
:100EF000B1FBF9F009FB101144EA014100FB0EFEC1
:100F00008E4508D91CEB010100F1FF346CD28E45EF
:100F10006AD90238614440EA0840A0FB0294A1EB80
:100F20000E01A142C846A64656D353D05DB1B3EBDD
:100F3000080261EB0E0101FA07F722FA06F3F1400D
:100F40001F43C5E9007100263146BDE8F087C2F1B4
:100F50002003D8400CFA02FC21FA03F3914001432C
:100F60004FEA1C471FFA8CFEB3FBF7F007FB103665
:100F70000B0C43EA064300FB0EF69E4204FA02F411
:100F800008D91CEB030300F1FF382FD29E422DD964
:100F9000023863449B1B89B2B3FBF7F607FB163399
:100FA00041EA034106FB0EF38B4208D91CEB010119
:100FB00006F1FF3816D28B4214D9023E6144C91A99
:100FC00046EA004638E72E46284605E70646E3E6A9
:100FD0001846F8E64B45A9D2B9EB020864EB0C0EB3
:100FE0000138A3E74646EAE7204694E74046D1E7C2
:100FF000D0467BE7023B614432E7304609E7644470
:10100000023842E7704700BF80B485B000AFF86097
:10101000B9601346FB80074AFB681360064ABB6849
:101020001360064AFB88138000BF1437BD465DF885
:10103000047B7047E8090020E0090020E409002053
:1010400080B500AF044B1B68044A11880022184683
:1010500003F000FD00BF80BDE0090020E40900208E
:1010600080B500AF044B1B68044A11880122184662
:1010700003F0F0FC00BF80BDE0090020E40900207F
:1010800080B582B000AF012007F018F803467B60FE
:10109000012007F013F803463B607B6806221A70B4
:1010A000FFF7CEFF01223968786800F067F8FFF794
:1010B000D7FF786807F00AF8386807F007F800BF2C
:1010C0000837BD4680BD80B582B000AF012006F074
:1010D000F5FF03467B60012006F0F0FF03463B600E
:1010E0007B6804221A70FFF7ABFF01223968786829
:1010F00000F044F8FFF7B4FF786806F0E7FF3868BF
:1011000006F0E4FF00BF0837BD4680BD80B584B05F
:1011100000AFFFF795FF012006F0D0FF0346FB600C
:10112000012006F0CBFF0346BB60FB6805221A7066
:10113000FFF786FF0122B968F86800F01FF80E4B30
:101140001A78FB681A700122B968F86800F016F87E
:10115000BB681B78FB71FB7903F00103002BEED118
:10116000FFF77EFFF86806F0B1FFB86806F0AEFF43
:1011700000BF1037BD4680BD0000002080B584B0A0
:1011800000AFF860B9601346FB800B4B00221A7069
:101190000A4B1868FB88BA68F96804F089F900BF3F
:1011A000054B1B7883F00103DBB2002BF8D100BFA5
:1011B00000BF1037BD4680BDF4100020E8090020B4
:1011C00080B586B000AFF860B9601346FB80FFF7CA
:1011D00037FFFB880433184606F070FF03467B6137
:1011E000FB88184606F06AFF03463B617B690322D1
:1011F0001A70BB681A0C7B690133D2B21A70BB68D3
:101200001A0A7B690233D2B21A707B690333BA6857
:10121000D2B21A70042239697869FFF7AFFF7B698F
:101220000433FA88F9681846FFF7A8FFFFF718FF9C
:10123000786906F04BFF386906F048FF00BF1837A1
:10124000BD4680BD80B588B000AFF860B960134678
:10125000FB80FB880433184606F030FF0346BB6171
:10126000FB88184606F02AFF03467B61FB88184678
:1012700006F024FF03463B61FFF702FFFFF7E0FEA5
:10128000BB6902221A70BB681A0CBB690133D2B267
:101290001A70BB681A0ABB690233D2B21A70BB69F2
:1012A0000333BA68D2B21A7004227969B869FFF7B9
:1012B00065FF0023FB770AE0FB7FFA681A44FB7F97
:1012C00079690B4412781A70FB7F0133FB77FB7F3F
:1012D0009BB2FA889A42EFD8FB881A463969786936
:1012E000FFF74CFFFFF7BCFEFFF710FFFFF7EBFE29
:1012F000B86906F0EBFE786906F0E8FE00BF20371B
:10130000BD4680BD80B584B000AF7860042006F093
:10131000D5FE0346FB60042006F0D0FE0346BB600A
:10132000FB6820221A707B681A0CFB680133D2B26A
:101330001A707B681A0AFB680233D2B21A70FB6813
:1013400003337A68D2B21A70FFF79AFEFFF778FE7D
:101350000422B968F868FFF711FFFFF781FEFFF775
:10136000D5FEFFF7B0FEF86806F0B0FEB86806F0EC
:10137000ADFE00BF1037BD4680BD000080B500AF98
:1013800002F0B0FB00F060F800F092FB00F0BCF857
:1013900000F00CF900F040F900F0EAF900F034FA3E
:1013A00000F0B4FA00F006FB00F058FB01221D49E2
:1013B0001D4805F0BCFE1D4804F0E0FC1C4804F08C
:1013C00083FC0021194804F095FD0421174804F01E
:1013D00091FD0021174804F08DFD0C21154804F003
:1013E00089FD0421144804F0DBFE0421134804F0B5
:1013F000D7FE01F0D5FC4FF4805211491148FFF798
:1014000003FE00F09DFD00F08BFC01F081FC00F07C
:10141000E9FD01F09DFA01F025FA01F013FC00F05E
:10142000C9FDF2E79D100020F40B00201C0B0020EA
:10143000D40A00208C0A0020640B0020AC0B002092
:1014400000040240340A002080B594B000AF07F1D8
:10145000200330220021184607F07CF807F10C0326
:1014600000221A605A609A60DA601A610023BB6039
:10147000234B1B6C224A43F080531364204B1B6C9C
:1014800003F08053BB60BB6800237B601D4B1B686F
:1014900023F440431B4A43F400431360194B1B6879
:1014A00003F440437B607B6802233B620123FB62C1
:1014B00010233B630023BB6307F12003184603F0AE
:1014C00015FB0346002B01D001F042FF0F23FB6008
:1014D00000233B6100237B610023BB610023FB6190
:1014E00007F10C030021184603F078FD0346002B9A
:1014F00001D001F02DFF00BF5037BD4680BD00BFB9
:10150000003802400070004080B584B000AF3B4618
:1015100000221A605A609A60DA60214B214A1A60F0
:101520001F4B00225A601E4B00229A601C4B002267
:101530001A611B4B00221A76194B002283F82020D7
:10154000174B0022DA62164B174A9A62144B00229C
:10155000DA60134B0122DA61114B002283F830204C
:101560000F4B01225A610E4802F052FB0346002B3A
:1015700001D001F0EDFE05233B6001237B600023D9
:10158000BB603B461946064802F006FD0346002BA9
:1015900001D001F0DDFE00BF1037BD4680BD00BFA9
:1015A000EC090020002001400100000F80B500AFD1
:1015B000174B184A1A60164B4FF482725A60144B3C
:1015C00000229A60124B0022DA60114B00221A614D
:1015D0000F4B00225A610E4B4FF400729A610C4B74
:1015E0000022DA610A4B00221A62094B00225A6279
:1015F000074B00229A62064B0A22DA62044803F083
:10160000CDFE0346002B01D001F0A2FE00BF80BD3D
:10161000340A00200038004080B596B000AF07F1D2
:10162000480300221A605A609A60DA6007F14003AA
:1016300000221A605A6007F1240300221A605A60DF
:101640009A60DA601A615A619A613B1D202200217A
:10165000184606F07FFF444B444A1A60424B40F262
:101660003F625A60404B00229A603F4BC722DA60CB
:101670003D4B00221A613C4B00225A613A4B00223A
:101680009A61394804F0D0FA0346002B01D001F0EA
:101690005FFE4FF48053BB6407F14803194632489C
:1016A00004F0D6FF0346002B01D001F051FE2E4876
:1016B00004F0C6FB0346002B01D001F049FE0023D5
:1016C0003B6400237B6407F140031946264805F07C
:1016D0007BFB0346002B01D001F03AFE60237B62C6
:1016E0000023BB620023FB6200233B6300237B6378
:1016F0000023BB630023FB6307F124030022194688
:10170000194804F0E3FE0346002B01D001F020FE4F
:1017100007F124030C221946134804F0D7FE0346B0
:10172000002B01D001F014FE00237B600023BB607E
:101730000023FB6000233B6100237B614FF40053D7
:10174000BB6100233B623B1D1946074805F0AAFB1D
:101750000346002B01D001F0FBFD034801F08AFF96
:1017600000BF5837BD4680BD8C0A002000000140F4
:1017700080B586B000AF07F1080300221A605A60F6
:101780009A60DA603B4600221A605A601D4B4FF0A7
:1017900080421A601B4B0F225A601A4B00229A603B
:1017A000184B4FF0FF32DA60164B00221A61154BCE
:1017B00000229A61134804F037FA0346002B01D047
:1017C00001F0C6FD4FF48053BB6007F108031946D2
:1017D0000C4804F03DFF0346002B01D001F0B8FD9A
:1017E00000233B6000237B603B461946054805F01B
:1017F000EBFA0346002B01D001F0AAFD00BF183719
:10180000BD4680BDD40A002080B58EB000AF07F180
:10181000280300221A605A609A60DA6007F12003F8
:1018200000221A605A603B1D00221A605A609A60BA
:10183000DA601A615A619A61324B334A1A60314B4D
:101840000F225A602F4B00229A602E4B40F2E73253
:10185000DA602C4B00221A612A4B00229A61294837
:1018600004F0E2F90346002B01D001F071FD4FF4C2
:101870008053BB6207F128031946224804F0E8FEB2
:101880000346002B01D001F063FD1E4804F0D8FA96
:101890000346002B01D001F05BFD00233B620023D7
:1018A0007B6207F120031946164805F08DFA0346BE
:1018B000002B01D001F04CFD60237B600023BB6056
:1018C0000023FB6000237B613B1D002219460D486D
:1018D00004F0FCFD0346002B01D001F039FD3B1D57
:1018E00004221946074804F0F1FD0346002B01D0FD
:1018F00001F02EFD034801F0BDFE00BF3837BD46A4
:1019000080BD00BF1C0B00200004004080B58CB0DF
:1019100000AF07F10C0324220021184606F01AFE3E
:101920003B1D00221A605A60204B214A1A601F4B4F
:1019300000225A601D4B00229A601C4B4FF6FF722A
:10194000DA601A4B00221A61184B00229A610323B5
:10195000FB6000233B6101237B610023BB6100230B
:10196000FB6100233B6201237B620023BB620023F7
:10197000FB6207F10C0319460C4804F06BFB0346AD
:10198000002B01D001F0E4FC00237B600023BB604E
:101990003B1D1946054805F017FA0346002B01D0F8
:1019A00001F0D6FC00BF3037BD4680BD640B00207F
:1019B0000008004080B58CB000AF07F10C03242272
:1019C0000021184606F0C6FD3B1D00221A605A6031
:1019D000204B214A1A601F4B00225A601D4B0022E7
:1019E0009A601C4B4FF0FF32DA601A4B00221A61EA
:1019F000184B00229A610323FB6000233B61012303
:101A00007B610023BB610023FB6100233B62012358
:101A10007B620023BB620023FB6207F10C031946C3
:101A20000C4804F017FB0346002B01D001F090FC9A
:101A300000237B600023BB603B1D1946054805F071
:101A4000C3F90346002B01D001F082FC00BF303700
:101A5000BD4680BDAC0B0020000C004080B500AF3F
:101A6000114B124A1A60104B4FF4E1325A600E4B80
:101A700000229A600C4B0022DA600B4B00221A61A4
:101A8000094B0C225A61084B00229A61064B002236
:101A9000DA61054805F06CFA0346002B01D001F02D
:101AA00057FC00BF80BD00BFF40B002000100140B8
:101AB00080B58AB000AF07F1140300221A605A60A3
:101AC0009A60DA601A6100233B61774B1B6B764AA0
:101AD00043F004031363744B1B6B03F004033B617B
:101AE0003B690023FB60704B1B6B6F4A43F0800324
:101AF00013636D4B1B6B03F08003FB60FB680023DB
:101B0000BB60694B1B6B684A43F001031363664B70
:101B10001B6B03F00103BB60BB6800237B60624B5F
:101B20001B6B614A43F0020313635F4B1B6B03F0B3
:101B300002037B607B6800224FF400515B4802F097
:101B400089FF002241F20C61594802F083FF4FF4F3
:101B500000537B610123BB610023FB6100233B62D7
:101B600007F114031946514802F0D8FD4FF44043E1
:101B70007B614FF40413BB610123FB6107F1140384
:101B800019464A4802F0CAFD0C237B614FF4441306
:101B9000BB610023FB6107F114031946454802F0BD
:101BA000BDFD03237B614FF44413BB610023FB6144
:101BB00007F1140319463E4802F0B0FD41F20C4310
:101BC0007B610123BB610023FB6100233B6207F1C2
:101BD00014031946364802F0A1FD4FF480537B618F
:101BE0004FF40413BB610123FB6107F11403194691
:101BF000304802F093FD4FF498737B614FF4041367
:101C0000BB610123FB6107F114031946284802F068
:101C100085FD4FF400737B610123BB610023FB61F1
:101C200002233B6207F114031946214802F076FDB6
:101C300000220521062002F0A8FC062002F0C1FCCB
:101C400000220521072002F0A0FC072002F0B9FCC9
:101C500000220521082002F098FC082002F0B1FCC7
:101C600000220521092002F090FC092002F0A9FCC5
:101C7000002206210A2002F088FC0A2002F0A1FCC2
:101C800000220621172002F080FC172002F099FCA8
:101C900000220621282002F078FC282002F091FC86
:101CA00000BF2837BD4680BD003802400008024012
:101CB000000402400000024080B588B000AF034637
:101CC000FB7107F10C0300221A605A609A60DA6017
:101CD0001A61FB79002B0FD04FF40073FB600123D6
:101CE0003B6100237B610223BB6107F10C031946B2
:101CF0000A4802F013FD0CE04FF40073FB60002370
:101D00003B6100237B6107F10C031946034802F095
:101D100005FD00BF2037BD4680BD00BF0004024066
:101D20002DE9F043A3B014AF404801F049F801F0A9
:101D3000EFFA00F0B7FE00F0A9F83D4B1B6818461B
:101D4000FEF70AFC804689463A4B1B681846FEF7A8
:101D500003FC04460D46384B1B887B63374B1B78CE
:101D60003B63374B1B78FB62364B1B78BB62364BB1
:101D70001B787B62354B1B783B62354B1B78FB61D4
:101D8000344B1B78BB61344B1A687A61334B1B7838
:101D90003B61334B1E68334B1B78FB60324B1B7827
:101DA000BB60324B1B787B60314B1B781846314B44
:101DB0001B781946304B1B781A46304B1B7813930F
:101DC00012921191109079680F91B9680E91F9688B
:101DD0000D910C9639690B917A690A92BA69099248
:101DE000FA6908923A6A07927A6A0692BA6A059282
:101DF000FA6A04923A6B03927B6B0293CDE9004539
:101E000042464B461E491F4806F0C8FB1D48FEF7D8
:101E1000E7F903469AB2C8231A491B4805F0F5F8BA
:101E200000BF3C37BD46BDE8F08300BFDC1000209A
:101E3000E4100020E8100020D8100020B810002086
:101E4000BA100020BC100020B9100020BB100020E8
:101E5000BD100020C2100020C8100020C3100020B8
:101E6000CC100020AC100020B0100020AE100020DC
:101E7000AD100020B1100020AF100020C1100020D4
:101E800098FB00089C0C0020F40B0020F0B58BB0F0
:101E900008AF1F4B1B789C461E4B1B789E461E4B63
:101EA0001B781A461D4B1B7819461D4B1B7818468C
:101EB0001C4B1B781C461C4B1B781D461B4B1B7870
:101EC0001E461B4B1B787B601A4B1B7807937B6865
:101ED000069305960495039402900191009273462F
:101EE00062461549154806F059FB4FF42430FFF7B8
:101EF00009FA1248FEF774F903469BB21A464FF4EA
:101F000024310E48FFF79EF900BF0C37BD46F0BDE7
:101F1000B8100020BA100020B9100020BB1000201B
:101F2000C2100020C3100020AC100020B010002010
:101F3000AD100020B110002028FC0008F81000208F
:101F400080B588B008AF13224FF424310D48FFF755
:101F500037F90D4B07930D4B06930D4B05930D4B26
:101F600004930D4B03930D4B02930D4B01930D4BBB
:101F700000930D4B0D4A0E49024806F02FFB00BF9F
:101F8000BD4680BDF8100020B1100020AD1000202B
:101F9000B0100020AC100020C3100020C2100020A0
:101FA000BB100020B9100020BA100020B81000208B
:101FB00048FC000880B500AF084B1A68084B1B6846
:101FC000D31A47F22F52934205D9FFF7A9FE034BCC
:101FD0001B68034A136000BF80BD00BFA010002033
:101FE000A410002080B500AFA04B1B68A04A127857
:101FF0009B1A132B40F204849E48FEF7F1F8034627
:10200000062B40F2FD839B48FEF7EAF803469AB29E
:10201000C8239849984804F0F8FF9648FEF7E0F87E
:102020000346072B29D106229449924806F047FB24
:102030000346002B21D1924B184606F011F80346B7
:10204000DAB2904B1A7000F097FE8F4B1B78002B82
:1020500010D08C4B1B781A468C498D4806F09EFA9E
:102060008B48FEF7BDF803469AB2C82388498248D8
:1020700004F0CBFFFFF754FEC2E37E48FEF7B0F852
:102080000346072B29D1062282497A4806F017FB1E
:102090000346002B21D17A4B184605F0E1FF034699
:1020A000DAB27D4B1A7000F067FE774B1B78002B7D
:1020B00010D0794B1B781A467849754806F06EFAAD
:1020C0007348FEF78DF803469AB2C82370496A48F0
:1020D00004F09BFFFFF724FE92E308227049654855
:1020E00006F0EDFA0346002B29D16248FEF778F896
:1020F0000346092B23D16B4B01221A706A4B1846F9
:1021000005F0AEFF0346DAB2684B1A7000F034FEF9
:102110005D4B1B78002B00F07383644B1B781A46D1
:1021200063495B4806F03AFA5948FEF759F8034606
:102130009AB2C8235649504804F067FF60E34D48FF
:10214000FEF74EF80346092B2BD10822594949487E
:1021500006F0B5FA0346002B23D1574B01221A7023
:10216000514B184605F07CFF0346DAB2534B1A7008
:1021700000F002FE444B1B78002B00F041834F4BD4
:102180001B781A464E49424806F008FA4048FEF7C6
:1021900027F803469AB2C8233D49374804F035FF73
:1021A0002EE33448FEF71CF80346092B2BD10822F6
:1021B0004449304806F083FA0346002B23D1394BBB
:1021C00001221A70384B184605F04AFF0346DAB26E
:1021D0003D4B1A7000F0D0FD2B4B1B78002B00F00C
:1021E0000F83394B1B781A463849294806F0D6F92F
:1021F0002748FDF7F5FF03469AB2C82324491E4835
:1022000004F003FFFCE21B48FDF7EAFF0346092B3D
:1022100064D108222E49174806F051FA0346002BD4
:102220005CD1254B01221A701F4B184605F018FF90
:102230000346DAB2274B1A7000F09EFD124B1B7852
:10224000002B00F0DD82234B1B781A4622491048F0
:1022500006F0A4F90E48FDF7C3FF03469AB2C8235F
:102260000B49054804F0D1FECAE200BFA0100020CF
:102270009E100020380C0020F40B00207CFC00088D
:102280003E0C0020AC1000205C11002084FC0008F3
:102290009C0C002098FC0008AD100020A0FC000859
:1022A000B4FC0008B2100020400C0020B010002048
:1022B000C0FC0008D0FC0008B3100020B1100020C2
:1022C000DCFC0008ECFC0008AE100020F8FC000864
:1022D0000CFD0008AF10002018FD0008AA48FDF70B
:1022E0007FFF0346072B29D10622A849A64806F0FE
:1022F000E6F90346002B21D1A54B184605F0B0FEA8
:102300000346DAB2A34B1A7000F036FDA24B1B78DD
:10231000002B10D09F4B1B781A46A049A04806F00E
:102320003DF99F48FDF75CFF03469AB2C8239C49DC
:102330009C4804F06AFEFFF7F3FC61E29248FDF767
:102340004FFF0346072B29D1062297498E4806F0F6
:10235000B6F90346002B21D18D4B184605F080FEBF
:102360000346DAB2914B1A7000F006FD8A4B1B78D7
:10237000002B10D08D4B1B781A468D49884806F0EB
:102380000DF98748FDF72CFF03469AB2C82384490C
:10239000844804F03AFEFFF7C3FC31E27A48FDF7C7
:1023A0001FFF0346092B2BD108228249764806F0ED
:1023B00086F90346002B23D17F4B01221A707F4BF5
:1023C000184605F04DFE0346DAB27D4B1A7000F058
:1023D000D3FC714B1B78002B00F01282784B1B78DA
:1023E0001A4678496E4806F0D9F86D48FDF7F8FEB0
:1023F00003469AB2C8236A496A4804F006FEFFE120
:102400006148FDF7EDFE0346092B2BD108226E49EA
:102410005D4806F054F90346002B23D16B4B012293
:102420001A70664B184605F01BFE0346DAB2684B7D
:102430001A7000F0A1FC584B1B78002B00F0E081D3
:10244000634B1B781A466349554806F0A7F8544871
:10245000FDF7C6FE03469AB2C8235149514804F01D
:10246000D4FDCDE14848FDF7BBFE0346072B29D13B
:1024700006225949444806F022F90346002B21D18F
:10248000434B184605F0ECFD0346DAB2534B1A7085
:1024900000F072FC404B1B78002B10D04F4B1B7888
:1024A0001A464F493E4806F079F83D48FDF798FE38
:1024B00003469AB2C8233A493A4804F0A6FDFFF70A
:1024C0002FFC9DE13048FDF78BFE0346072B29D1F9
:1024D000062244492C4806F0F2F80346002B21D18D
:1024E0002B4B184605F0BCFD0346DAB23E4B1A7082
:1024F00000F042FC284B1B78002B10D03A4B1B7885
:102500001A463A49264806F049F82548FDF768FE7C
:1025100003469AB2C8232249224804F076FDFFF709
:10252000FFFB6DE11848FDF75BFE0346092B67D101
:1025300008222F49144806F0C2F80346002B5FD149
:102540002C4B01221A701D4B184605F089FD0346DD
:10255000DAB2294B1A7000F00FFC0F4B1B78002BDE
:1025600000F04E81244B1B781A4624490C4806F093
:1025700015F80B48FDF734FE03469AB2C823084904
:10258000084804F042FD3BE1380C00202CFD000817
:102590003E0C0020C21000205C11002034FD000819
:1025A0009C0C0020F40B002048FD0008C310002004
:1025B00050FD000864FD0008C6100020400C0020FB
:1025C000C410002070FD000884FD0008C710002022
:1025D000C510002090FD0008A4FD0008B8100020E0
:1025E000ACFD0008C0FD0008B9100020C8FD0008BF
:1025F000DCFD0008BE100020BA100020E8FD000835
:102600008048FDF7EDFD0346092B2BD108227E49BA
:102610007C4806F054F80346002B23D17B4B012263
:102620001A707B4B184605F01BFD0346DAB2794B56
:102630001A7000F0A1FB784B1B78002B00F0E080B3
:10264000744B1B781A467549754805F0A7FF744806
:10265000FDF7C6FD03469AB2C8237149714804F0DC
:10266000D4FCCDE06748FDF7BBFD0346092B2BD119
:1026700008226D49634806F022F80346002B23D157
:102680006A4B01221A70624B184605F0E9FC0346BA
:10269000DAB2674B1A7000F06FFB5F4B1B78002BB0
:1026A00000F0AE80624B1B781A4662495C4805F028
:1026B00075FF5B48FDF794FD03469AB2C82358495D
:1026C000584804F0A2FC9BE04E48FDF789FD034604
:1026D000092B2AD1082258494A4805F0F0FF034641
:1026E000002B22D1494B01221A70494B184605F0A4
:1026F000B7FC0346DAB2514B1A7000F03DFB464B73
:102700001B78002B7CD04D4B1B781A464C49444813
:1027100005F044FF4248FDF763FD03469AB2C82323
:102720003F49404804F071FC6AE0062245493548BB
:1027300005F0C5FF0346002B23D13248FDF750FDBD
:102740000346072B1DD1404B01221A703F4B00223C
:102750001A7000F011FB304B1B78002B50D03B4B14
:102760001B781A463A492E4805F018FF2C48FDF709
:1027700037FD03469AB2C82329492A4804F045FC8C
:102780003EE0062233491F4805F099FF0346002B1F
:1027900025D11C48FDF724FD0346072B1FD12E4BE6
:1027A000184605F05DFC0346DAB21B4B1A7000F0C8
:1027B000E3FA194B1B78002B22D0174B1B781A46D3
:1027C0002649174805F0EAFE1548FDF709FD0346BE
:1027D0009AB2C8231249134804F017FC10E000F025
:1027E000CBFA1F490E4805F0D9FE0D48FDF7F8FC5D
:1027F00003469AB2C8230A490A4804F006FCFFE7D8
:1028000000BF80BD380C0020FCFD0008BF10002078
:10281000400C0020BB1000205C11002008FE0008C6
:102820009C0C0020F40B00201CFE0008BE100020B1
:10283000BC10002028FE00083CFE0008BD1000204F
:1028400048FE00085CFE0008C0100020C1100020F7
:1028500064FE000874FE00083E0C00207CFE0008A8
:1028600090FE000880B500AF304B1B78002B2BD0BA
:102870002F4B1B78002B15D001212E4802F0D2F8E7
:1028800003461A462C4B1A702B4B1B78002B04D096
:102890002A4B1B680F225A6311E0284B1B68192230
:1028A0005A630CE0244B1B78002B04D0234B1B688D
:1028B0000F225A6303E0214B1B6819225A631B4BFA
:1028C00000221A70FFF72CFA1D4B1B78002B2BD01F
:1028D0001C4B1B78002B15D004211B4802F0A2F8DA
:1028E00003461A46194B1A70184B1B78002B04D05C
:1028F000124B1B6805221A6411E0104B1B680F2253
:102900001A640CE0114B1B78002B04D00B4B1B6896
:1029100005221A6403E0094B1B680F221A64084B56
:1029200000221A70FFF7FCF900BF80BDBE10002026
:10293000BA10002000040240BC1000208C0A0020C5
:10294000BF100020BB10002000000240BD1000207E
:1029500080B500AF4B4B1B78002B4ED04A4B1B78F9
:10296000002B04D1494B1B6800225A632FE0464BD1
:102970001B78012B04D1454B1B68C8225A6326E003
:10298000414B1B78022B05D1404B1B684FF4C8729A
:102990005A631CE03C4B1B78032B05D13B4B1B6857
:1029A0004FF416725A6312E0374B1B78042B05D193
:1029B000364B1B684FF448725A6308E0324B1B7861
:1029C000052B04D1314B1B6840F2E7325A632E4B82
:1029D0001B781A462E492F4805F0E0FD2D48FDF7DB
:1029E000FFFB03469AB2C8232A492B4804F00DFB8B
:1029F000244B00221A70FFF793F9284B1B78002B09
:102A00003DD0274B1B78002B04D1204B1B680022A4
:102A10009A632FE0224B1B78012B04D11B4B1B68C0
:102A2000C8229A6326E01E4B1B78022B05D1174B58
:102A30001B684FF4C8729A631CE0194B1B78032B78
:102A400005D1124B1B684FF416729A6312E0144BB7
:102A50001B78042B05D10D4B1B684FF448729A6309
:102A600008E00F4B1B78052B04D1084B1B6840F284
:102A7000E7329A63094B00221A70FFF751F900BF41
:102A800080BD00BFC6100020C41000201C0B002019
:102A9000A4FE00089C0C0020F40B0020C7100020AE
:102AA000C510002098B500AFC82001F08DF8394B53
:102AB0001B685B6A384A1360384B1B685B6A384A8C
:102AC0001360642001F080F8324B1B685A6A324B65
:102AD0001B68D31A4FF4167202FB03F3314AA2FBB0
:102AE00003231B0A1A46304B1A602C4B1B685A6A88
:102AF0002B4B1B68D31A4FF4167202FB03F3294ABF
:102B0000A2FB03231B0A1A46284B1A60274B1C689A
:102B1000264B1B68184600F055F803462246244908
:102B2000244805F03BFD2348FDF75AFB03469AB2C3
:102B3000C8232049204804F068FA1B4B1B6818463C
:102B400000F040F803461A461C4B1B789A4204D00A
:102B5000154B4FF0FF321A6004E0184B1B781A46F1
:102B6000114B1A60114B1B68184600F02BF80346F6
:102B70001A46134B1B789A4204D00C4B4FF0FF328D
:102B80001A6004E00E4B1B781A46084B1A6000BF0F
:102B900098BD00BF640B0020D0100020AC0B0020BB
:102BA000D4100020ABAAAAAAC8100020CC10002084
:102BB000B8FE00089C0C0020F40B0020C41000207C
:102BC000C510002080B483B000AF78607B68002B14
:102BD00001D100232FE07B68B3F5167F06DB7B680D
:102BE00040F27D42934201DC012324E07B6840F205
:102BF0007D42934206DD7B6840F29D72934201DC88
:102C0000022318E07B6840F29D72934206DD7B68E8
:102C100040F6B732934201DC03230CE07B6840F6B8
:102C2000B732934206DD7B6840F63B72934201DC8B
:102C3000042300E0052318460C37BD465DF8047BED
:102C40007047000080B500AF294B1B78002B25D0C2
:102C5000284B1B78002B14D04FF4967000F0B4FF73
:102C60000821254801F0DEFE03461A46234B1A7060
:102C7000224B1B781A464FF48061214801F0EAFE8E
:102C800007E01E4B1B781A464FF480611C4801F088
:102C9000E1FE174B00221A70FFF742F8194B1B7820
:102CA000002B23D0184B1B78002B13D04FF49670B9
:102CB00000F08AFF0221124801F0B4FE03461A46D2
:102CC000124B1A70114B1B781A4608210C4801F060
:102CD000C1FE06E00D4B1B781A460821084801F09A
:102CE000B9FE084B00221A70FFF71AF800BF80BD2A
:102CF000B2100020B010002000000240AE100020F2
:102D000000040240B3100020B1100020AF100020DA
:102D100080B500AF094B1A68094B1B68D31AB3F58D
:102D20007A7F08D34FF40051064801F0ACFE034B04
:102D30001B68034A136000BF80BD00BFA0100020C5
:102D4000A81000200008024080B483B000AF786073
:102D5000084B1B6800225A6200BF064B1B685B6A67
:102D60007A689A42F9D800BF00BF0C37BD465DF8BB
:102D7000047B7047D40A002080B500AF0648FDF7F9
:102D80002FFA03461A460021034805F0E3FB034BE4
:102D900000221A7000BF80BD380C00209C1000205B
:102DA00080B500AF0120FEF787FF01224FF40071CC
:102DB000024801F04FFE00BF80BD00BF000402408A
:102DC00080B588B000AF786000224FF400718A4867
:102DD00001F040FE4FF47A70FFF7B6FF01224FF486
:102DE0000071854801F036FE1420FFF7ADFF00208A
:102DF000FEF762FF7820FFF7A7FF0023FB6187E063
:102E00000023FB7600237B6176E07C4B1B687C4AC9
:102E1000136021E0794B1A68794B1B68D31A042B95
:102E20001AD9784B1B78002B0DD07749774805F0DD
:102E3000B5FB7648FDF7D4F903469AB2C823734927
:102E4000734804F0E2F8734B734A1A60734B724A8A
:102E50001A60FFF7A5FFCCE04FF40071664801F05F
:102E6000E1FD0346002BD5D01E20FFF76DFF4FF488
:102E70000071614801F0D6FD0346002B07D0FB7EB0
:102E80005B005BB243F001035BB2FB7602E0FB7ECA
:102E90005B00FB76594B1B68594A136021E0574B86
:102EA0001A68574B1B68D31A042B1AD9554B1B7839
:102EB000002B0DD05A49554805F070FB5348FDF7DB
:102EC0008FF903469AB2C8235049514804F09DF83F
:102ED000504B514A1A60514B4F4A1A60FFF760FF3E
:102EE00087E04FF40071444801F09CFD0346002B3D
:102EF000D5D17B6901337B617B69072B85DD07F1C8
:102F00000802FB691344FA7E1A70FB690133FB6106
:102F1000FB69042B7FF774AFFFF742FF3A7A7B68B7
:102F20001A707A7A7B685A70BA7A7B689A70FA7AE1
:102F30007B68DA703A7B7B681A713B7A9AB27B7A4B
:102F40009BB213449AB2BB7A9BB213449AB2FB7AF7
:102F50009BB213447B827B8ADBB29AB23B7B9BB2EF
:102F60009A421AD0274B1B78002B0DD02D492748A9
:102F700005F014FB2548FDF733F903469AB2C82340
:102F80002249234804F041F8224B234A1A60234B7C
:102F9000214A1A60FFF704FF2BE07B689B781B0235
:102FA0001AB27B68DB781BB213431BB23B827B688F
:102FB0001B781B021AB27B685B781BB213431BB2EF
:102FC000FB813B8A07EE903AB8EE677AF2EE046A2C
:102FD000C7EE267A0F4BC3ED007AFB8907EE903AD5
:102FE000B8EE677AF2EE046AC7EE267A0B4BC3EDB1
:102FF000007A2037BD4680BD00040240A0100020AA
:10300000EC1000205C110020C0FE00089C0C002089
:10301000F40B0020E4100020000080BFE810002026
:10302000C8FE0008D4FE000880B483B000AF034699
:10303000FB80FB88012B14D16D4B1A686D4B1B680C
:10304000D31AB3F5FA7FC0F0CC806B4B1B78002B02
:1030500002D06A4B01221A70654B1B68654A1360E7
:10306000BFE0FB88042B14D1614B1A68614B1B68CD
:10307000D31AB3F5FA7FC0F0B480614B1B78002BF4
:1030800002D0604B01221A70594B1B68594A1360D9
:10309000A7E0FB88082B14D1554B1A685A4B1B68C4
:1030A000D31AB3F5FA7FC0F09C80584B1B78002BE5
:1030B00002D0574B01221A704D4B1B68524A1360C5
:1030C0008FE0FB88022B14D1494B1A684E4B1B68CA
:1030D000D31AB3F5FA7FC0F084804E4B1B78002BD7
:1030E00002D04D4B01221A70414B1B68464A1360B7
:1030F00077E0FB88102B19D13D4B1A683D4B1B68BC
:10310000D31AB3F5FA7F6CD33B4B00221A70434BB2
:103110001B7883F00103DAB2404B1A70374B01225F
:103120001A70334B1B68334A13605AE0FB88202B1C
:1031300019D12F4B1A682F4B1B68D31AB3F5FA7F9E
:103140004FD3324B00221A70354B1B7883F00103AA
:10315000DAB2334B1A702E4B01221A70244B1B68C3
:10316000244A13603DE0FB88B3F5004F19D1204B92
:103170001A68204B1B68D31AB3F5FA7F31D3254B5D
:1031800000221A70274B1B7883F00103DAB2254B1B
:103190001A70214B01221A70154B1B68154A1360D7
:1031A0001FE0FB88B3F5807F1BD1114B1A68114BD0
:1031B0001B68D31AB3F5FA7F13D31B4B01221A7085
:1031C0001A4B1B780133DAB2184B1A70174B1B7865
:1031D000062B02D1154B00221A70054B1B68054ABD
:1031E000136000BF0C37BD465DF8047B704700BF1D
:1031F000A0100020F0100020BA100020BE10002007
:10320000BB100020BF100020B4100020B010002020
:10321000B2100020B1100020B3100020BC1000201C
:10322000AE100020AF100020C6100020C4100020F7
:1032300080B582B000AF78607B681A68114B1B685C
:103240009A421AD1104B1B78632B06D80E4B1B7871
:103250001A460E4B19780E4B99540E4B1B68DAB276
:103260000D4B1A70084B1B780133DAB2064B1A70FB
:1032700001220649034803F05AFF00BF0837BD4644
:1032800080BD00BFF40B00209C1000209D1000208A
:10329000380C0020A01000209E10002080B483B0C5
:1032A00000AF78607B681A680B4B1B689A420CD1A0
:1032B0000A4B1B680133094A1360084B1B68B3F1C2
:1032C000FF3F02D1054B00221A6000BF0C37BD46FC
:1032D0005DF8047B704700BF1C0B0020A01000208D
:1032E00080B483B000AF78607B681A68064B1B68B7
:1032F0009A4202D1054B01221A7000BF0C37BD461D
:103300005DF8047B704700BF340A0020F4100020F1
:1033100080B500AF0B4800F0BFFC4FF47A7109484C
:1033200000F0A1FD074800F029FE03469AB2064BC3
:103330001A80044800F064FD044B01221A7000BF9B
:1033400080BD00BFEC090020D8100020C010002074
:1033500080B400AF72B600BFFEE7000080B483B057
:1033600000AF00237B60104B5B6C0F4A43F480433B
:1033700053640D4B5B6C03F480437B607B680023DC
:103380003B60094B1B6C084A43F080531364064BA7
:103390001B6C03F080533B603B6800BF0C37BD469D
:1033A0005DF8047B704700BF0038024080B58AB0EA
:1033B00000AF786007F1140300221A605A609A6027
:1033C000DA601A617B681B68174A934227D1002391
:1033D0003B61164B5B6C154A43F480735364134B8B
:1033E0005B6C03F480733B613B690023FB600F4B14
:1033F0001B6B0E4A43F0010313630C4B1B6B03F072
:103400000103FB60FB6820237B610323BB61002376
:10341000FB6107F114031946054801F07FF900BF6D
:103420002837BD4680BD00BF002001400038024063
:103430000000024080B58AB000AF786007F1140345
:1034400000221A605A609A60DA601A617B681B6811
:103450001D4A934234D100233B611C4B1B6C1B4A19
:1034600043F480431364194B1B6C03F480433B61AA
:103470003B690023FB60154B1B6B144A43F00203AE
:103480001363124B1B6B03F00203FB60FB684FF4EA
:1034900060437B610223BB610023FB6103233B622A
:1034A00005237B6207F114031946094801F036F938
:1034B00000220721242001F068F8242001F081F87F
:1034C00000BF2837BD4680BD0038004000380240AC
:1034D0000004024080B586B000AF78607B681B684E
:1034E000224A93420ED100237B61214B5B6C204A20
:1034F00043F0010353641E4B5B6C03F001037B61DB
:103500007B692EE07B681B68B3F1804F0ED10023EE
:103510003B61174B1B6C164A43F001031364144BB9
:103520001B6C03F001033B613B691AE07B681B687D
:10353000104A934215D10023FB600D4B1B6C0C4AC3
:1035400043F0020313640A4B1B6C03F00203FB609D
:10355000FB6800220D211D2001F017F81D2001F04D
:1035600030F800BF1837BD4680BD00BF00000140E5
:10357000003802400004004080B58CB000AF786095
:1035800007F11C0300221A605A609A60DA601A611F
:103590007B681B68324A93422CD10023BB61314BBC
:1035A0001B6C304A43F0040313642E4B1B6C03F076
:1035B0000403BB61BB6900237B612A4B1B6B294A57
:1035C00043F002031363274B1B6B03F002037B6181
:1035D0007B69C023FB6102233B6200237B620023E3
:1035E000BB620223FB6207F11C0319461E4801F06F
:1035F00095F830E07B681B681C4A93422BD100236E
:103600003B61184B1B6C174A43F008031364154BBE
:103610001B6C03F008033B613B690023FB60114B0B
:103620001B6B104A43F0010313630E4B1B6B03F03B
:103630000103FB60FB680323FB6102233B62002361
:103640007B620023BB620223FB6207F11C03194665
:10365000074801F063F800BF3037BD4680BD00BFAA
:10366000000800400038024000040240000C004006
:103670000000024080B58AB000AF786007F1140303
:1036800000221A605A609A60DA601A617B681B68CF
:10369000244A93421FD100233B61234B1B6B224AD8
:1036A00043F001031363204B1B6B03F001033B61E9
:1036B0003B694FF410637B610223BB610023FB6114
:1036C00000233B6201237B6207F11403194617486C
:1036D00001F024F822E07B681B68154A93421DD153
:1036E0000023FB60104B1B6B0F4A43F00103136375
:1036F0000D4B1B6B03F00103FB60FB68C0237B6178
:103700000223BB610023FB6100233B6202237B6237
:1037100007F114031946054801F000F800BF2837E7
:10372000BD4680BD0000014000380240000002405C
:103730000004004080B58AB000AF786007F1140340
:1037400000221A605A609A60DA601A617B681B680E
:103750001D4A934234D100233B611C4B5B6C1B4AD6
:1037600043F010035364194B5B6C03F010033B618F
:103770003B690023FB60154B1B6B144A43F00103AC
:103780001363124B1B6B03F00103FB60FB684FF4E8
:10379000C0637B610223BB610023FB6103233B62A7
:1037A00007237B6207F114031946094800F0B6FFAE
:1037B00000220E21252000F0E8FE252000F001FF68
:1037C00000BF2837BD4680BD0010014000380240D0
:1037D0000000024080B400AFFEE780B400AFFEE717
:1037E00080B400AFFEE780B400AFFEE780B400AF66
:1037F000FEE780B400AF00BFBD465DF8047B7047B4
:1038000080B400AF00BFBD465DF8047B704780B454
:1038100000AF00BFBD465DF8047B704780B500AFC8
:1038200000F0B2F900BF80BD80B500AF012001F00B
:1038300045F900BF80BD80B500AF022001F03EF920
:1038400000BF80BD80B500AF042001F037F900BF94
:1038500080BD80B500AF082001F030F900BF80BD09
:1038600080B500AF102001F029F900BF80BD80B500
:1038700000AF202001F022F94FF4807001F01EF912
:1038800000BF80BD80B500AF024802F017FD00BF49
:1038900080BD00BF1C0B002080B500AF024801F0C6
:1038A0009BFE00BF80BD00BF340A002080B500AF82
:1038B000024803F06DFC00BF80BD00BFF40B002088
:1038C00080B500AF4FF4805001F0F8F84FF480401D
:1038D00001F0F4F84FF4004001F0F0F800BF80BDB3
:1038E00080B400AF01231846BD465DF8047B7047E5
:1038F00080B582B000AF7860396004F0B5FB034654
:1039000016221A604FF0FF3318460837BD4680BDB7
:1039100080B582B000AF78604FF0FF317868FFF774
:10392000E7FFFEE780B586B000AFF860B9607A6067
:1039300000237B610AE0AFF300800146BB685A1C9C
:10394000BA60CAB21A707B6901337B617A697B689D
:103950009A42F0DB7B6818461837BD4680BD80B5BB
:1039600086B000AFF860B9607A6000237B6109E03F
:10397000BB685A1CBA601B781846AFF300807B699D
:1039800001337B617A697B689A42F1DB7B68184678
:103990001837BD4680BD80B483B000AF78604FF06B
:1039A000FF3318460C37BD465DF8047B704780B482
:1039B00083B000AF786039603B684FF400525A60C2
:1039C000002318460C37BD465DF8047B704780B471
:1039D00083B000AF7860012318460C37BD465DF810
:1039E000047B704780B485B000AFF860B9607A603E
:1039F000002318461437BD465DF8047B704700006D
:103A000080B586B000AF7860144A154BD31A7B613D
:103A10007B693B61134B1B68002B02D1114B124A8F
:103A20001A60104B1A687B6813443A699A4207D2AD
:103A300004F01AFB03460C221A604FF0FF3309E032
:103A4000084B1B68FB60074B1A687B681344054AE8
:103A50001360FB6818461837BD4680BD0000012082
:103A60000004000060110020A811002080B400AF05
:103A7000064BD3F88830054A43F47003C2F8883007
:103A800000BFBD465DF8047B704700BF00ED00E05D
:103A9000DFF834D00D480E490E4A002302E0D45816
:103AA000C4500433C4188C42F9D30B4A0B4C002386
:103AB00001E013600432A242FBD3FFF7D7FF04F00A
:103AC000D9FAFDF75BFC70470000012000000020E0
:103AD000C409002088030108C4090020A4110020A3
:103AE000FEE7000080B500AF0E4B1B680D4A43F4A3
:103AF000007313600B4B1B680A4A43F48063136026
:103B0000084B1B68074A43F480731360032000F0DE
:103B100031FD0F2000F008F8FFF720FC00231846C5
:103B200080BD00BF003C024080B582B000AF78602D
:103B3000124B1A68124B1B7819464FF47A73B3FB79
:103B4000F1F3B2FBF3F3184600F049FD0346002BF6
:103B500001D001230EE07B680F2B0AD80022796880
:103B60004FF0FF3000F011FD064A7B681360002320
:103B700000E0012318460837BD4680BD0400002040
:103B80000C0000200800002080B400AF064B1B781A
:103B90001A46064B1B681344044A136000BFBD4617
:103BA0005DF8047B704700BF0C000020641100200A
:103BB00080B400AF034B1B681846BD465DF8047B1C
:103BC000704700BF6411002080B584B000AF7860FA
:103BD000FFF7EEFFB8607B68FB60FB68B3F1FF3F67
:103BE00005D00A4B1B781A46FB681344FB6000BFE4
:103BF000FFF7DEFF0246BB68D31AFA689A42F7D88D
:103C000000BF00BF1037BD4680BD00BF0C000020C4
:103C100080B584B000AF78600023FB737B68002B15
:103C200001D1012333E07B681B6C002B09D178683C
:103C3000FFF7BCFB7B6800225A647B68002283F894
:103C40003C207B681B6C03F01003002B18D17B68B1
:103C50001B6C23F4885323F0020343F002027B68B9
:103C60001A64786800F0BAFA7B6800225A647B68AC
:103C70001B6C23F0030343F001027B681A6401E02C
:103C80000123FB737B68002283F83C20FB7B1846F2
:103C90001037BD4680BD000080B485B000AF7860AD
:103CA0000023BB607B6893F83C30012B01D10223D9
:103CB00097E07B68012283F83C207B681B689B6847
:103CC00003F00103012B18D07B681B689A687B689E
:103CD0001B6842F001029A60454B1B68454AA2FBF3
:103CE00003239A0C13465B001344BB6002E0BB68DD
:103CF000013BBB60BB68002BF9D17B681B689B68EC
:103D000003F00103012B5FD17B681B6C23F4E0639C
:103D100023F0010343F480727B681A647B681B689C
:103D20005B6803F48063002B07D07B681B6C23F473
:103D3000405343F480527B681A647B681B6C03F425
:103D40008053B3F5805F06D17B685B6C23F006027D
:103D50007B685A6402E07B6800225A647B68002218
:103D600083F83C20244BFB607B681B686FF02202C9
:103D70001A60FB685B6803F01F03002B0FD17B68A0
:103D80001B689B6803F04053002B29D17B681B689C
:103D90009A687B681B6842F080429A6020E07B68EA
:103DA0001B68164A93421BD17B681B689B6803F013
:103DB0004053002B14D17B681B689A687B681B6892
:103DC00042F080429A600BE07B681B6C43F010026B
:103DD0007B681A647B685B6C43F001027B685A6401
:103DE000002318461437BD465DF8047B704700BFBA
:103DF0000400002083DE1B4300230140002001401B
:103E000080B483B000AF78607B6893F83C30012BBE
:103E100001D1022321E07B68012283F83C207B68EA
:103E20001B689A687B681B6822F001029A607B68B5
:103E30001B689B6803F00103002B09D17B681B6C96
:103E400023F4885323F0010343F001027B681A64D2
:103E50007B68002283F83C20002318460C37BD46BF
:103E60005DF8047B704780B584B000AF786039603E
:103E70000023FB607B681B689B6803F48063B3F5D9
:103E8000806F13D17B681B689B6803F48073B3F564
:103E9000807F0BD17B681B6C43F020027B681A6427
:103EA0007B68002283F83C20012363E0FFF780FE5B
:103EB000F86021E03B68B3F1FF3F1DD03B68002B69
:103EC00007D0FFF775FE0246FB68D31A3A689A429C
:103ED00012D27B681B681B6803F00203022B0BD015
:103EE0007B681B6C43F004027B681A647B680022C9
:103EF00083F83C2003233DE07B681B681B6803F0CC
:103F00000203022BD6D17B681B686FF012021A6085
:103F10007B681B6C43F400727B681A647B681B68C7
:103F20009B6803F04053002B23D17B681B7E002B42
:103F30001FD17B681B68DB6A03F47003002B06D07B
:103F40007B681B689B6803F48063002B11D17B683E
:103F50001B6C23F480727B681A647B681B6C03F40F
:103F60008053002B05D17B681B6C43F001027B68FA
:103F70001A64002318461037BD4680BD80B483B054
:103F800000AF78607B681B68DB6C18460C37BD4659
:103F90005DF8047B7047000080B485B000AF7860A6
:103FA00039600023BB607B6893F83C30012B01D162
:103FB000022305E17B68012283F83C203B681B68F3
:103FC000092B25D97B681B68D9683B681B689BB2A5
:103FD0001A4613465B0013441E3B072202FA03F302
:103FE000DA437B681B680A40DA607B681B68D96823
:103FF0003B689A683B681B689BB2184603465B00A7
:1040000003441E3B9A407B681B680A43DA6022E047
:104010007B681B6819693B681B689BB21A4613468C
:104020005B001344072202FA03F3DA437B681B6840
:104030000A401A617B681B6819693B689A683B688B
:104040001B689BB2184603465B0003449A407B689A
:104050001B680A431A613B685B68062B24D87B689F
:104060001B68596B3B685A6813469B001344053B19
:104070001F2202FA03F3DA437B681B680A405A6383
:104080007B681B68596B3B681B689BB218463B6892
:104090005A6813469B001344053B00FA03F27B6801
:1040A0001B680A435A634CE03B685B680C2B24D8BE
:1040B0007B681B68196B3B685A6813469B00134466
:1040C000233B1F2202FA03F3DA437B681B680A4092
:1040D0001A637B681B68196B3B681B689BB21846A8
:1040E0003B685A6813469B001344233B00FA03F2D3
:1040F0007B681B680A431A6323E07B681B68D96AE4
:104100003B685A6813469B001344413B1F2202FA46
:1041100003F3DA437B681B680A40DA627B681B683A
:10412000D96A3B681B689BB218463B685A681346BD
:104130009B001344413B00FA03F27B681B680A436F
:10414000DA62224BFB607B681B68214A934209D1EB
:104150003B681B68122B05D1FB685B6843F4800247
:10416000FB685A607B681B68194A934223D13B68FD
:104170001B68102B03D03B681B68112B1BD1FB68FD
:104180005B6843F40002FB685A603B681B68102BB5
:1041900011D1104B1B68104AA2FB03239A0C134643
:1041A0009B0013445B00BB6002E0BB68013BBB604B
:1041B000BB68002BF9D17B68002283F83C200023E8
:1041C00018461437BD465DF8047B70470023014054
:1041D000002001400400002083DE1B4380B485B032
:1041E00000AF7860794BFB60FB685B6823F440327A
:1041F000FB685A60FB685A687B685B681A43FB6817
:104200005A607B681B685A687B681B6822F480725E
:104210005A607B681B6859687B681B691A027B6857
:104220001B680A435A607B681B685A687B681B6876
:1042300022F040725A607B681B6859687B689A68F4
:104240007B681B680A435A607B681B689A687B68B6
:104250001B6822F400629A607B681B6899687B681F
:10426000DA687B681B680A439A607B689B6A584AD5
:10427000934222D07B681B689A687B681B6822F097
:1042800070629A607B681B6899687B689A6A7B6831
:104290001B680A439A607B681B689A687B681B6886
:1042A00022F040529A607B681B6899687B68DA6AE2
:1042B0007B681B680A439A600FE07B681B689A68FA
:1042C0007B681B6822F070629A607B681B689A6842
:1042D0007B681B6822F040529A607B681B689A6872
:1042E0007B681B6822F002029A607B681B689968F1
:1042F0007B681B7E5A007B681B680A439A607B6858
:1043000093F82030002B1BD07B681B685A687B68B1
:104310001B6842F400625A607B681B685A687B68BD
:104320001B6822F460425A607B681B6859687B688E
:104330005B6A013B5A037B681B680A435A6007E0CB
:104340007B681B685A687B681B6822F400625A60AD
:104350007B681B68DA6A7B681B6822F47002DA6289
:104360007B681B68D96A7B68DB69013B1A057B683F
:104370001B680A43DA627B681B689A687B681B6863
:1043800022F400729A607B681B6899687B6893F8D6
:1043900030305A027B681B680A439A607B681B684E
:1043A0009A687B681B6822F480629A607B681B684D
:1043B00099687B685B699A027B681B680A439A600C
:1043C00000BF1437BD465DF8047B704700230140F1
:1043D0000100000F80B485B000AF78607B6803F007
:1043E0000703FB600C4BDB68BB60BA684FF6FF034A
:1043F0001340BB60FB681A02BB68134343F0BF6302
:1044000043F40033BB60044ABB68D36000BF143779
:10441000BD465DF8047B704700ED00E080B400AF5E
:10442000044BDB681B0A03F007031846BD465DF822
:10443000047B704700ED00E080B483B000AF03461A
:10444000FB7197F90730002B0BDBFB7903F01F02A0
:10445000074997F907305B09012000FA02F241F899
:10446000232000BF0C37BD465DF8047B704700BFBA
:1044700000E100E080B483B000AF03463960FB7117
:1044800097F90730002B0ADB3B68DAB20C4997F941
:1044900007301201D2B20B4483F800230AE03B68D4
:1044A000DAB20849FB7903F00F03043B1201D2B2E0
:1044B0000B441A7600BF0C37BD465DF8047B70478D
:1044C00000E100E000ED00E080B489B000AFF860EA
:1044D000B9607A60FB6803F00703FB61FB69C3F115
:1044E0000703042B28BF0423BB61FB690433062B9D
:1044F00002D9FB69033B00E000237B614FF0FF32F0
:10450000BB6902FA03F3DA43BB681A407B699A403D
:104510004FF0FF317B6901FA03F3D9437B680B400D
:10452000134318462437BD465DF8047B70470000EE
:1045300080B582B000AF78607B68013BB3F1807FCB
:1045400001D301230FE00A4A7B68013B53600F212E
:104550004FF0FF30FFF78EFF054B00229A60044BAF
:1045600007221A60002318460837BD4680BD00BFE9
:1045700010E000E080B582B000AF78607868FFF7A7
:1045800029FF00BF0837BD4680BD80B586B000AFAB
:104590000346B9607A60FB7300237B61FFF73EFF3F
:1045A00078617A68B9687869FFF78EFF024697F9F3
:1045B0000F3011461846FFF75DFF00BF1837BD46A4
:1045C00080BD80B582B000AF0346FB7197F907301C
:1045D0001846FFF731FF00BF0837BD4680BD80B5E4
:1045E00082B000AF78607868FFF7A2FF03461846F4
:1045F0000837BD4680BD80B584B000AF78607B6869
:104600009B6DFB60FFF7D4FAB8607B6893F8353098
:10461000DBB2022B08D07B6880225A657B680022BF
:1046200083F83420012352E07B681B681A687B689A
:104630001B6822F016021A607B681B685A697B6847
:104640001B6822F080025A617B681B6C002B03D12F
:104650007B689B6C002B07D07B681B681A687B68A3
:104660001B6822F008021A607B681B681A687B6866
:104670001B6822F001021A6013E0FFF799FA024664
:10468000BB68D31A052B0CD97B6820225A657B683E
:10469000032283F835207B68002283F8342003232B
:1046A00015E07B681B681B6803F00103002BE4D155
:1046B0007B68DB6D3F229A40FB689A607B68012231
:1046C00083F835207B68002283F8342000231846C5
:1046D0001037BD4680BD80B483B000AF78607B6882
:1046E00093F83530DBB2022B04D07B6880225A6508
:1046F00001230CE07B68052283F835207B681B686A
:104700001A687B681B6822F001021A6000231846B1
:104710000C37BD465DF8047B7047000080B489B05B
:1047200000AF7860396000237B6100233B61002388
:10473000BB610023FB6159E10122FB6902FA03F32B
:104740007B613B681B687A6913403B613A697B690E
:104750009A4240F048813B685B6803F00303012BF9
:1047600005D03B685B6803F00303022B30D17B6804
:104770009B68BB61FB695B00032202FA03F3DB4326
:10478000BA691340BB613B68DA68FB695B0002FAF7
:1047900003F3BA691343BB617B68BA699A607B68AB
:1047A0005B68BB610122FB6902FA03F3DB43BA6970
:1047B0001340BB613B685B681B0903F00102FB69A6
:1047C00002FA03F3BA691343BB617B68BA695A60A2
:1047D0003B685B6803F00303032B17D07B68DB683F
:1047E000BB61FB695B00032202FA03F3DB43BA6996
:1047F0001340BB613B689A68FB695B0002FA03F3F4
:10480000BA691343BB617B68BA69DA603B685B686D
:1048100003F00303022B23D1FB69DA087B6808321B
:1048200053F82230BB61FB6903F007039B000F22A2
:1048300002FA03F3DB43BA691340BB613B681A69B0
:10484000FB6903F007039B0002FA03F3BA69134301
:10485000BB61FB69DA087B680832B96943F822104A
:104860007B681B68BB61FB695B00032202FA03F3F0
:10487000DB43BA691340BB613B685B6803F003022A
:10488000FB695B0002FA03F3BA691343BB617B68FF
:10489000BA691A603B685B6803F44033002B00F090
:1048A000A2800023FB60574B5B6C564A43F4804365
:1048B0005364544B5B6C03F48043FB60FB68524AC7
:1048C000FB699B08023352F82330BB61FB6903F09C
:1048D00003039B000F2202FA03F3DB43BA69134080
:1048E000BB617B68494A934219D07B68484A93422E
:1048F00013D07B68474A93420DD07B68464A934267
:1049000007D07B68454A934201D1042308E007237E
:1049100006E0032304E0022302E0012300E0002379
:10492000FA6902F0030292009340BA691343BB6133
:104930003549FB699B080233BA6941F82320384B9B
:104940009B68BB613B69DB43BA691340BB613B6851
:104950005B6803F48013002B03D0BA693B691343EF
:10496000BB612F4ABB6993602D4BDB68BB613B6920
:10497000DB43BA691340BB613B685B6803F4001317
:10498000002B03D0BA693B691343BB61244ABB695E
:10499000D360234B5B68BB613B69DB43BA6913405F
:1049A000BB613B685B6803F40033002B03D0BA693A
:1049B0003B691343BB611A4ABB695360184B1B68C0
:1049C000BB613B69DB43BA691340BB613B685B6811
:1049D00003F48033002B03D0BA693B691343BB61F6
:1049E0000F4ABB691360FB690133FB61FB690F2B45
:1049F0007FF6A2AE00BF00BF2437BD465DF8047B42
:104A0000704700BF003802400038014000000240FB
:104A10000004024000080240000C02400010024066
:104A2000003C014080B485B000AF78600B467B80CD
:104A30007B681A697B881340002B02D00123FB732B
:104A400001E00023FB73FB7B18461437BD465DF87D
:104A5000047B704780B483B000AF78600B467B80E6
:104A600013467B707B78002B03D07A887B689A6131
:104A700003E07B881A047B689A6100BF0C37BD464F
:104A80005DF8047B704780B485B000AF78600B465A
:104A90007B807B685B69FB607A88FB6813401A0443
:104AA000FB68D9437B880B401A437B689A6100BF3F
:104AB0001437BD465DF8047B7047000080B582B0B6
:104AC00000AF0346FB80084B5A69FB881340002B5C
:104AD00006D0054AFB885361FB881846FEF7A4FA06
:104AE00000BF0837BD4680BD003C014080B586B0A0
:104AF00000AF78607B68002B01D1012367E27B68FF
:104B00001B6803F00103002B75D0884B9B6803F0F2
:104B10000C03042B0CD0854B9B6803F00C03082B73
:104B200012D1824B5B6803F48003B3F5800F0BD185
:104B30007E4B1B6803F40033002B5BD07B685B6803
:104B4000002B57D1012342E27B685B68B3F5803FBD
:104B500006D1764B1B68754A43F4803313601DE021
:104B60007B685B68B3F5A02F0CD1704B1B686F4A54
:104B700043F4802313606D4B1B686C4A43F480330D
:104B800013600BE0694B1B68684A23F480331360A1
:104B9000664B1B68654A23F4802313607B685B685F
:104BA000002B13D0FFF704F8386108E0FFF700F896
:104BB00002463B69D31A642B01D9032307E25B4BFE
:104BC0001B6803F40033002BF0D014E0FEF7F0FF75
:104BD000386108E0FEF7ECFF02463B69D31A642B0C
:104BE00001D90323F3E1514B1B6803F40033002B7D
:104BF000F0D100E000BF7B681B6803F00203002BCC
:104C000063D04A4B9B6803F00C03002B0BD0474B3F
:104C10009B6803F00C03082B1CD1444B5B6803F426
:104C20008003002B16D1414B1B6803F00203002BBD
:104C300005D07B68DB68012B01D00123C7E13B4B2A
:104C40001B6823F0F8027B681B69DB0037491343BC
:104C50000B603AE07B68DB68002B20D0344B0122EC
:104C60001A60FEF7A5FF386108E0FEF7A1FF0246D3
:104C70003B69D31A022B01D90323A8E12B4B1B68F4
:104C800003F00203002BF0D0284B1B6823F0F8023E
:104C90007B681B69DB00254913430B6015E0244B3F
:104CA00000221A60FEF784FF386108E0FEF780FFFB
:104CB00002463B69D31A022B01D9032387E11B4B20
:104CC0001B6803F00203002BF0D17B681B6803F024
:104CD0000803002B36D07B685B69002B16D0154B80
:104CE00001221A60FEF764FF386108E0FEF760FFFA
:104CF00002463B69D31A022B01D9032367E10B4B10
:104D00005B6F03F00203002BF0D01BE0094B002285
:104D10001A60FEF74DFF38610EE0FEF749FF0246CC
:104D20003B69D31A022B07D9032350E10038024014
:104D300000004742800E4742884B5B6F03F002033E
:104D4000002BEAD17B681B6803F00403002B00F002
:104D500097800023FB75814B1B6C03F08053002B65
:104D60000FD10023BB607D4B1B6C7C4A43F080530A
:104D700013647A4B1B6C03F08053BB60BB68012348
:104D8000FB75774B1B6803F48073002B18D1744BB1
:104D90001B68734A43F480731360FEF709FF3861A0
:104DA00008E0FEF705FF02463B69D31A022B01D942
:104DB00003230CE16A4B1B6803F48073002BF0D0D3
:104DC0007B689B68012B06D1644B1B6F634A43F0E1
:104DD000010313671CE07B689B68052B0CD15F4BBC
:104DE0001B6F5E4A43F0040313675C4B1B6F5B4A07
:104DF00043F0010313670BE0584B1B6F574A23F036
:104E000001031367554B1B6F544A23F004031367C8
:104E10007B689B68002B15D0FEF7CAFE38610AE05C
:104E2000FEF7C6FE02463B69D31A41F2883293422E
:104E300001D90323CBE0494B1B6F03F00203002B86
:104E4000EED014E0FEF7B4FE38610AE0FEF7B0FEE3
:104E500002463B69D31A41F28832934201D90323B7
:104E6000B5E03E4B1B6F03F00203002BEED1FB7D40
:104E7000012B05D1394B1B6C384A23F08053136446
:104E80007B689B69002B00F0A180344B9B6803F08A
:104E90000C03082B5CD07B689B69022B41D1314B02
:104EA00000221A60FEF784FE386108E0FEF780FEFB
:104EB00002463B69D31A022B01D9032387E0274B13
:104EC0001B6803F00073002BF0D17B68DA697B6804
:104ED0001B6A1A437B685B6A9B011A437B689B6A67
:104EE0005B08013B1B041A437B68DB6A1B061B49FA
:104EF00013434B601B4B01221A60FEF759FE3861C9
:104F000008E0FEF755FE02463B69D31A022B01D991
:104F100003235CE0114B1B6803F00073002BF0D0FF
:104F200054E0104B00221A60FEF742FE386108E0A0
:104F3000FEF73EFE02463B69D31A022B01D903233A
:104F400045E0064B1B6803F00073002BF0D13DE0F9
:104F50007B689B69012B07D1012338E000380240B0
:104F600000700040600047421B4B5B68FB607B6841
:104F70009B69012B28D0FB6803F480027B68DB6906
:104F80009A4221D1FB6803F03F027B681B6A9A4278
:104F90001AD1FA6847F6C07313407A68526A9201D0
:104FA000934211D1FB6803F440327B689B6A5B0833
:104FB000013B1B049A4207D1FB6803F070627B68D7
:104FC000DB6A1B069A4201D0012300E00023184649
:104FD0001837BD4680BD00BF0038024080B584B0A0
:104FE00000AF786039607B68002B01D10123CCE0F1
:104FF000684B1B6803F007033A689A420CD9654B6B
:105000003A68D2B21A70634B1B6803F007033A6820
:105010009A4201D00123B8E07B681B6803F00203C9
:10502000002B20D07B681B6803F00403002B05D005
:10503000594B9B68584A43F4E05393607B681B6864
:1050400003F00803002B05D0534B9B68524A43F4EE
:1050500060439360504B9B6823F0F0027B689B6831
:105060004D4913438B607B681B6803F00103002BE1
:1050700044D07B685B68012B07D1474B1B6803F466
:105080000033002B19D101237FE07B685B68022B82
:1050900003D07B685B68032B07D13F4B1B6803F091
:1050A0000073002B09D101236FE03B4B1B6803F019
:1050B0000203002B01D1012367E0374B9B6823F0EB
:1050C00003027B685B68344913438B60FEF770FD15
:1050D000F8600AE0FEF76CFD0246FB68D31A41F265
:1050E0008832934201D903234FE02B4B9B6803F096
:1050F0000C027B685B689B009A42EBD1254B1B68D6
:1051000003F007033A689A420CD2224B3A68D2B2B3
:105110001A70204B1B6803F007033A689A4201D0CB
:10512000012332E07B681B6803F00403002B08D0E6
:10513000194B9B6823F4E0527B68DB6816491343E4
:105140008B607B681B6803F00803002B09D0124BAF
:105150009B6823F460427B681B69DB000E491343A4
:105160008B6000F021F802460B4B9B681B0903F093
:105170000F030A49CB5C22FA03F3094A1360094B77
:105180001B681846FEF7D0FC002318461037BD46B2
:1051900080BD00BF003C024000380240DCFE000839
:1051A00004000020080000202DE9B04F90B000AFAF
:1051B00000237B630023FB6300233B630023BB636B
:1051C000594B9B6803F00C03082B0DD0082B00F201
:1051D000A180002B02D0042B03D09BE0534BBB6378
:1051E0009BE0534BBB6398E04F4B5B6803F03F037E
:1051F0007B634D4B5B6803F48003002B28D04A4B44
:105200005B689B0900223B627A623B6AC3F3080039
:105210000021474B03FB01F2002300FB03F313447F
:10522000434AA0FB0212FA620A46BA62FA6A1344BF
:10523000FB627B6B0022BB61FA61D7E90623D7E9E9
:105240000A01FBF729FD02460B461346FB6353E0B8
:10525000354B5B689B0900223B617A613B69C3F374
:10526000080A4FF0000B52465B464FF000004FF02B
:105270000001590141EAD261500102460B46B2EBEE
:105280000A0863EB0B094FF000024FF000034FEAEE
:10529000891343EA98634FEA8812B2EB080463EB80
:1052A00009054FF000024FF00003EB0043EA54738E
:1052B000E20014461D4614EB0A033B6045EB0B036A
:1052C0007B604FF000024FF00003D7E9004529460C
:1052D0008B02214643EA915321468A021046194621
:1052E0007B6B0022BB60FA60D7E90223FBF7D4FC9A
:1052F00002460B461346FB630B4B5B681B0C03F02B
:10530000030301335B003B63FA6B3B6BB2FBF3F3CC
:10531000BB6302E0054BBB6300BFBB6B1846403765
:10532000BD46BDE8B08F00BF003802400024F40045
:1053300040787D0180B400AF034B1B681846BD4622
:105340005DF8047B704700BF0400002080B500AF0B
:10535000FFF7F0FF0246054B9B689B0A03F007032B
:105360000349CB5C22FA03F3184680BD00380240A3
:10537000ECFE000880B500AFFFF7DCFF0246054BEE
:105380009B685B0B03F007030349CB5C22FA03F332
:10539000184680BD00380240ECFE000880B582B09F
:1053A00000AF78607B68002B01D101237BE07B6834
:1053B0005B6A002B08D17B685B68B3F5827F09D0FC
:1053C0007B680022DA6105E07B6800221A617B6855
:1053D00000225A617B6800229A627B6893F8513000
:1053E000DBB2002B06D17B68002283F8502078685E
:1053F000FEF720F87B68022283F851207B681B6847
:105400001A687B681B6822F040021A607B685B6840
:1054100003F482727B689B6803F404431A437B683D
:10542000DB6803F400631A437B681B6903F0020323
:105430001A437B685B6903F001031A437B689B692D
:1054400003F400731A437B68DB6903F038031A43E3
:105450007B681B6A03F0800342EA03017B689B6A56
:1054600003F400527B681B680A431A607B689B69DF
:105470001B0C03F004017B685B6A03F010027B687D
:105480001B680A435A607B681B68DA697B681B6883
:1054900022F40062DA617B6800225A657B6801228F
:1054A00083F85120002318460837BD4680BD000010
:1054B00080B487B000AFF860B9607A607B80002369
:1054C000FB75FB6893F85030012B01D1022375E086
:1054D000FB68012283F85020FB6893F85130BB75BC
:1054E000FB685B683B61BB7D012B0DD03B69B3F56D
:1054F000827F06D1FB689B68002B02D1BB7D042B09
:1055000002D00223FB7554E0BB68002B05D07B68FA
:10551000002B02D07B88002B02D10123FB7548E0D1
:10552000FB6893F85130DBB2042B03D0FB680522F3
:1055300083F85120FB6800225A65FB68BA681A6339
:10554000FB687A889A86FB687A88DA86FB687A68CC
:105550009A63FB687A889A87FB687A88DA87FB689F
:10556000DB68002B06D0FB68174A1A64FB68174AF1
:105570005A6405E0FB68164A1A64FB68154A5A64C7
:10558000FB681B685A68FB681B6842F0E0025A60BF
:10559000FB681B681B6803F04003402B08D0FB68C6
:1055A0001B681A68FB681B6842F040021A6000E042
:1055B00000BFFB68002283F85020FB7D18461C3793
:1055C000BD465DF8047B7047ED5800084D59000852
:1055D000295800088D58000880B588B000AF786061
:1055E0007B681B685B68FB617B681B689B68BB61B1
:1055F000BB699B0903F00103002B0FD1BB6903F0CA
:105600000103002B0AD0FB699B0903F00103002B67
:1056100004D07B681B6C78689847D7E0BB695B084F
:1056200003F00103002B0AD0FB69DB0903F001033F
:10563000002B04D07B685B6C78689847C6E0BB6938
:105640005B0903F00103002B0CD1BB699B0903F03C
:105650000103002B06D1BB691B0A03F00103002BD9
:1056600000F0B480FB695B0903F00103002B00F03C
:10567000AD80BB699B0903F00103002B23D07B683D
:1056800093F85130DBB2032B11D07B685B6D43F094
:1056900004027B685A6500237B617B681B68DB68BA
:1056A0007B617B681B689B687B617B690BE00023E7
:1056B0003B617B681B68DB683B617B681B689B68A0
:1056C0003B613B6982E0BB695B0903F00103002B8E
:1056D00014D07B685B6D43F001027B685A65002340
:1056E000FB607B681B689B68FB607B681B681A68B3
:1056F0007B681B6822F040021A60FB68BB691B0ACA
:1057000003F00103002B0CD07B685B6D43F00802B3
:105710007B685A650023BB607B681B689B68BB6025
:10572000BB687B685B6D002B4FD07B681B685A6839
:105730007B681B6822F0E0025A607B68012283F8D4
:105740005120FB6903F00203002B04D1FB6903F035
:105750000103002B34D07B681B685A687B681B6888
:1057600022F003025A607B68DB6C002B11D07B684F
:10577000DB6C184A1A657B68DB6C1846FEF7ABFFDA
:105780000346002B05D07B685B6D43F040027B68CD
:105790005A657B689B6C002B16D07B689B6C0D4A0E
:1057A0001A657B689B6C1846FEF795FF0346002B35
:1057B0000AD07B685B6D43F040027B685A6503E06A
:1057C000786800F013F800E000BF00BF2037BD4646
:1057D00080BD00BF0158000880B483B000AF78607E
:1057E00000BF0C37BD465DF8047B704780B483B0C2
:1057F00000AF786000BF0C37BD465DF8047B704792
:1058000080B584B000AF78607B689B6BFB60FB6801
:105810000022DA87FB680022DA86F868FFF7E6FFE5
:1058200000BF1037BD4680BD80B582B000AF786044
:105830007B681B6803F10C027B689B6B1278D2B209
:105840001A707B689B6B5A1C7B689A637B68DB8F42
:105850009BB2013B9AB27B68DA877B68DB8F9BB295
:10586000002B0FD17B681B685A687B681B6822F08D
:1058700060025A607B68DB8E9BB2002B02D1786895
:1058800000F05EF900BF0837BD4680BD80B582B02C
:1058900000AF78607B681A6B7B681B680C331278EA
:1058A0001A707B681B6B5A1C7B681A637B68DB8EE3
:1058B0009BB2013B9AB27B68DA867B68DB8E9BB237
:1058C000002B0FD17B681B685A687B681B6822F02D
:1058D00080025A607B68DB8F9BB2002B02D1786814
:1058E00000F02EF900BF0837BD4680BD80B582B0FC
:1058F00000AF78607B681B68DA687B689B6B92B24C
:105900001A807B689B6B9A1C7B689A637B68DB8F31
:105910009BB2013B9AB27B68DA877B68DB8F9BB2D4
:10592000002B0FD17B681B685A687B681B6822F0CC
:1059300040025A607B68DB8E9BB2002B02D17868F4
:1059400000F0FEF800BF0837BD4680BD80B582B0CC
:1059500000AF78607B681B6B1A887B681B68DA6015
:105960007B681B6B9A1C7B681A637B68DB8E9BB21F
:10597000013B9AB27B68DA867B68DB8E9BB2002B98
:105980000FD17B681B685A687B681B6822F0800215
:105990005A607B68DB8F9BB2002B02D1786800F0E5
:1059A000CFF800BF0837BD4680BD000080B588B085
:1059B00000AFF860B9603B601346FB71FEF7F8F882
:1059C0000246BB6A9B1A3A681344FB61FEF7F0F883
:1059D000B861394B1B685B011B0DFA6902FB03F3CD
:1059E0007B6154E03B68B3F1FF3F50D0FEF7E0F835
:1059F0000246BB69D31AFA699A4202D9FB69002BA5
:105A00003DD1FB681B685A68FB681B6822F0E00206
:105A10005A60FB685B68B3F5827F11D1FB689B68B5
:105A2000B3F5004F04D0FB689B68B3F5806F07D1D6
:105A3000FB681B681A68FB681B6822F040021A604A
:105A4000FB689B6AB3F5005F0FD1FB681B681A689F
:105A5000FB681B6822F400521A60FB681B681A6816
:105A6000FB681B6842F400521A60FB68012283F84D
:105A70005120FB68002283F85020032317E07B6944
:105A8000002B01D10023FB617B69013B7B61FB683B
:105A90001B689A68BB681340BA689A420CBF01231E
:105AA0000023DBB21A46FB799A429BD100231846A9
:105AB0002037BD4680BD00BF0400002080B588B0FF
:105AC00002AFF860B9607A601B4B1B681B4AA2FBEF
:105AD00003235B0D4FF47A7202FB03F37B61FB68D7
