:020000040800F2
:1000000000000120453B0008893800088F380008AF
:10001000953800089B380008A1380008000000004F
:10002000000000000000000000000000A7380008E9
:10003000B538000800000000C3380008D1380008B7
:10004000953B0008953B0008953B0008953B000850
:10005000953B0008953B0008DD380008EB380008A8
:10006000F93800080739000815390008953B0008E1
:10007000953B0008953B0008953B0008953B000820
:10008000953B0008953B0008953B000800000000E8
:1000900000000000000000000000000023390008FC
:1000A000953B0008953B0008953B0008953B0008F0
:1000B000953B000839390008953B0008953B00083E
:1000C000953B0008953B0008953B0008953B0008D0
:1000D0004D39000861390008953B00080000000018
:1000E00075390008953B0008953B000800000000AA
:1000F000000000000000000000000000953B000828
:1001000000000000953B0008953B0008953B000867
:1001100000000000000000000000000000000000DF
:10012000953B0008953B0008953B0008953B00086F
:10013000953B0008000000000000000000000000E7
:10014000000000000000000000000000953B0008D7
:10015000953B0008953B0008953B0008953B00083F
:10016000953B0008953B00080000000000000000DF
:10017000000000000000000000000000000000007F
:1001800000000000953B0008000000000000000097
:04019000953B000893
:1001A00010B5054C237833B9044B13B10448AFF3B1
:1001B00000800123237010BDC4090020000000004E
:1001C00030FC000808B5034B1BB103490348AFF3EB
:1001D000008008BD00000000C809002030FC0008B5
:1001E000034613F8012B002AFBD1181A0138704777
:1001F00001F0FF01102A2BDB10F0070F08D010F8D8
:10020000013B013A8B422DD010F0070F42B3F6D1DB
:10021000F0B441EA012141EA014122F007047FF0F4
:1002200000070023F0E80256083C85EA010586EA4B
:10023000010685FA47F5A3FA87F586FA47F6A5FA87
:1002400087F68EB9EED1F0BC01F0FF0102F0070293
:1002500032B110F8013B013A83EA010313B1F8D13E
:100260000020704701387047002D06BF354603381F
:10027000073815F0010F07D1013015F4807F02BF58
:10028000013015F4C03F0130F0BC0138704700BFA9
:1002900081F0004102E000BF83F0004330B54FEA37
:1002A00041044FEA430594EA050F08BF90EA020FA4
:1002B0001FBF54EA000C55EA020C7FEA645C7FEA37
:1002C000655C00F0E2804FEA5454D4EB5555B8BF5A
:1002D0006D420CDD2C4480EA020281EA030382EACB
:1002E000000083EA010180EA020281EA0303362D5D
:1002F00088BF30BD11F0004F4FEA01314FF4801C30
:100300004CEA113102D0404261EB410113F0004F41
:100310004FEA03334CEA133302D0524263EB4303F8
:1003200094EA050F00F0A780A4F10104D5F1200E96
:100330000DDB02FA0EFC22FA05F2801841F10001F1
:1003400003FA0EF2801843FA05F359410EE0A5F1C5
:1003500020050EF1200E012A03FA0EFC28BF4CF0F6
:10036000020C43FA05F3C01851EBE37101F00045AC
:1003700007D54FF0000EDCF1000C7EEB00006EEBB9
:100380000101B1F5801F1BD3B1F5001F0CD3490843
:100390005FEA30004FEA3C0C04F101044FEA44529A
:1003A00012F5800F80F09A80BCF1004F08BF5FEA21
:1003B000500C50F1000041EB045141EA050130BD01
:1003C0005FEA4C0C404141EB0101013C28BFB1F513
:1003D000801FE9D291F0000F04BF01460020B1FA5E
:1003E00081F308BF2033A3F10B03B3F120020CDA31
:1003F0000C3208DD02F1140CC2F10C0201FA0CF00F
:1004000021FA02F10CE002F11402D8BFC2F1200C73
:1004100001FA02F120FA0CFCDCBF41EA0C01904029
:10042000E41AA2BF01EB0451294330BD6FEA040472
:100430001F3C1CDA0C340EDC04F11404C4F120025D
:1004400020FA04F001FA02F340EA030021FA04F36F
:1004500045EA030130BDC4F10C04C4F1200220FAC6
:1004600002F001FA04F340EA0300294630BD21FA04
:1004700004F0294630BD94F0000F83F4801306BFCA
:1004800081F480110134013D4EE77FEA645C18BFBE
:100490007FEA655C29D094EA050F08BF90EA020F55
:1004A00005D054EA000C04BF1946104630BD91EA4D
:1004B000030F1EBF0021002030BD5FEA545C05D150
:1004C0004000494128BF41F0004130BD14F580048F
:1004D0003CBF01F5801130BD01F0004545F0FE4103
:1004E00041F470014FF0000030BD7FEA645C1ABF38
:1004F000194610467FEA655C1CBF0B46024650EA6F
:10050000013406BF52EA033591EA030F41F400219A
:1005100030BD00BF90F0000F04BF0021704730B520
:100520004FF4806404F132044FF000054FF00001F5
:1005300050E700BF90F0000F04BF0021704730B5B6
:100540004FF4806404F1320410F0004548BF40428B
:100550004FF000013EE700BF42004FEAE2014FEAE0
:1005600031014FEA02701FBF12F07F4393F07F4FBB
:1005700081F06051704732F07F4208BF704793F0BE
:100580007F4F04BF41F40021704730B54FF46074D1
:1005900001F0004521F000411CE700BF50EA0102D4
:1005A00008BF704730B54FF000050AE050EA01027D
:1005B00008BF704730B511F0004502D5404261EBED
:1005C00041014FF4806404F132045FEA915C3FF42E
:1005D000D8AE4FF003025FEADC0C18BF03325FEACB
:1005E000DC0C18BF033202EBDC02C2F1200300FA7C
:1005F00003FC20FA02F001FA03FE40EA0E0021FAA1
:1006000002F11444BDE600BF70B54FF0FF0C4CF48E
:10061000E06C1CEA11541DBF1CEA135594EA0C0F40
:1006200095EA0C0F00F0DEF82C4481EA030621EA7B
:100630004C5123EA4C5350EA013518BF52EA0335B6
:1006400041F4801143F4801338D0A0FB02CE4FF068
:100650000005E1FB02E506F00042E0FB03E54FF098
:100660000006E1FB03569CF0000F18BF4EF0010E90
:10067000A4F1FF04B6F5007F64F5407404D25FEA8C
:100680004E0E6D4146EB060642EAC62141EA55513F
:100690004FEAC52040EA5E504FEACE2EB4F1FD0C81
:1006A00088BFBCF5E06F1ED8BEF1004F08BF5FEAFF
:1006B000500E50F1000041EB045170BD06F00046B1
:1006C00046EA010140EA020081EA0301B4EB5C045E
:1006D000C2BFD4EB0C0541EA045170BD41F4801156
:1006E0004FF0000E013C00F3AB8014F1360FDEBF7B
:1006F000002001F0004170BDC4F10004203C35DA57
:100700000C341BDC04F11404C4F1200500FA05F3D9
:1007100020FA04F001FA05F240EA020001F000427A
:1007200021F0004110EBD37021FA04F642EB0601F0
:100730005EEA430E08BF20EAD37070BDC4F10C041A
:10074000C4F1200500FA04F320FA05F001FA04F2DE
:1007500040EA020001F0004110EBD37041F10001CA
:100760005EEA430E08BF20EAD37070BDC4F12005D5
:1007700000FA05F24EEA020E20FA04F301FA05F23D
:1007800043EA020321FA04F001F0004121FA04F2E5
:1007900020EA020000EBD3705EEA430E08BF20EAB5
:1007A000D37070BD94F0000F0FD101F000464000EF
:1007B00041EB010111F4801F08BF013CF7D041EA71
:1007C000060195F0000F18BF704703F00046520075
:1007D00043EB030313F4801F08BF013DF7D043EA46
:1007E0000603704794EA0C0F0CEA135518BF95EAFC
:1007F0000C0F0CD050EA410618BF52EA4306D1D183
:1008000081EA030101F000414FF0000070BD50EAA1
:10081000410606BF1046194652EA430619D094EA2B
:100820000C0F02D150EA013613D195EA0C0F05D115
:1008300052EA03361CBF104619460AD181EA030169
:1008400001F0004141F0FE4141F470014FF0000021
:1008500070BD41F0FE4141F4780170BD70B54FF0BC
:10086000FF0C4CF4E06C1CEA11541DBF1CEA13553C
:1008700094EA0C0F95EA0C0F00F0A7F8A4EB05041E
:1008800081EA030E52EA03354FEA013100F0888015
:100890004FEA03334FF0805545EA131343EA1263DE
:1008A0004FEA022245EA111545EA10654FEA002693
:1008B0000EF000419D4208BF964244F1FD0404F54C
:1008C000407402D25B084FEA3202B61A65EB0305A8
:1008D0005B084FEA32024FF480104FF4002CB6EB65
:1008E000020E75EB030E22BFB61A754640EA0C00E5
:1008F0005B084FEA3202B6EB020E75EB030E22BF25
:10090000B61A754640EA5C005B084FEA3202B6EB65
:10091000020E75EB030E22BFB61A754640EA9C0024
:100920005B084FEA3202B6EB020E75EB030E22BFF4
:10093000B61A754640EADC0055EA060E18D04FEAB2
:10094000051545EA16754FEA06164FEAC30343EA52
:1009500052734FEAC2025FEA1C1CC0D111F4801F1F
:100960000BD141EA00014FF000004FF0004CB6E718
:1009700011F4801F04BF01430020B4F1FD0C88BFB7
:10098000BCF5E06F3FF6AFAEB5EB030C04BFB6EBC2
:10099000020C5FEA500C50F1000041EB045170BDB5
:1009A0000EF0004E4EEA113114EB5C04C2BFD4EBE2
:1009B0000C0541EA045170BD41F480114FF0000E66
:1009C000013C90E645EA060E8DE60CEA135594EAE2
:1009D0000C0F08BF95EA0C0F3FF43BAF94EA0C0FE5
:1009E0000AD150EA01347FF434AF95EA0C0F7FF45A
:1009F00025AF104619462CE795EA0C0F06D152EAAE
:100A000003353FF4FDAE1046194622E750EA410691
:100A100018BF52EA43067FF4C5AE50EA41047FF4A2
:100A20000DAF52EA43057FF4EBAE12E74FF0FF3C07
:100A300006E000BF4FF0010C02E000BF4FF0010CD8
:100A40004DF804CD4FEA410C7FEA6C5C4FEA430C51
:100A500018BF7FEA6C5C1BD001B050EA410C0CBFA0
:100A600052EA430C91EA030F02BF90EA020F002002
:100A7000704710F1000F91EA030F58BF994208BF69
:100A800090422CBFD8176FEAE37040F00100704726
:100A90004FEA410C7FEA6C5C02D150EA013C07D17D
:100AA0004FEA430C7FEA6C5CD6D152EA033CD3D0C8
:100AB0005DF8040B704700BF8446104662468C46C2
:100AC0001946634600E000BF01B5FFF7B7FF0028F5
:100AD00048BF10F1000F01BD4DF808EDFFF7F4FF1E
:100AE0000CBF012000205DF808FB00BF4DF808EDA9
:100AF000FFF7EAFF34BF012000205DF808FB00BFCC
:100B00004DF808EDFFF7E0FF94BF012000205DF8ED
:100B100008FB00BF4DF808EDFFF7CEFF94BF0120A2
:100B200000205DF808FB00BF4DF808EDFFF7C4FF9B
:100B300034BF012000205DF808FB00BF4FEA410CE4
:100B40007FEA6C5C02D150EA013C0AD14FEA430CC7
:100B50007FEA6C5C02D152EA033C02D14FF0000004
:100B600070474FF0010070474FEA410212F5001242
:100B700015D211D56FF47873B3EB625212D94FEAE4
:100B8000C12343F0004343EA505311F0004F23FACE
:100B900002F018BF404270474FF00000704750EA23
:100BA000013005D111F0004008BF6FF000407047E0
:100BB0004FF00000704700BF4A0011D212F500123A
:100BC00011D20DD56FF47873B3EB62520ED44FEAA5
:100BD000C12343F0004343EA505323FA02F0704725
:100BE0004FF00000704750EA013002D14FF0FF3063
:100BF00070474FF0000070474FEA4102B2F1E04306
:100C000024BFB3F5001CDCF1FE5C0DD901F0004CF3
:100C10004FEAC0024CEA5070B2F1004F40EB830043
:100C200008BF20F00100704711F0804F21D113F16F
:100C30003872BCBF01F00040704741F480114FEAA8
:100C40005252C2F11802C2F1200C10FA0CF320FA31
:100C500002F018BF40F001004FEAC1234FEAD3234E
:100C600003FA0CFC40EA0C0023FA02F34FEA4303B8
:100C7000CCE77FEA625307D150EA01331EBF4FF041
:100C8000FE4040F44000704701F0004040F0FE405C
:100C900040F40000704700BF53B94AB9002908BFAB
:100CA00000281CBF4FF0FF314FF0FF3000F0AAB911
:100CB000ADF1080C6DE904CE00F03CF8DDF804E07D
:100CC000DDE9022304B0704738B500220023044652
:100CD0000D46FFF70BFF28B920462946BDE83840EE
:100CE00000F00AB8204605F1004100F005F8404246
:100CF00061EB410138BD00BFD0B50C4B0022064668
:100D00000F46FFF781FCFFF757FF0446FFF702FC91
:100D1000074B0022FFF778FC02460B463046394667
:100D2000FFF7BAFAFFF748FF2146D0BD0000F03DBB
:100D30000000F0412DE9F047089D04468E46002B47
:100D40004DD18A42944669D9B2FA82F252B101FA7F
:100D500002F3C2F1200120FA01F10CFA02FC41EA8F
:100D6000030E94404FEA1C48210CBEFBF8F61FFA14
:100D70008CF708FB16E341EA034306FB07F19942AF
:100D80000AD91CEB030306F1FF3080F01F81994262
:100D900040F21C81023E63445B1AA4B2B3FBF8F03C
:100DA00008FB103344EA034400FB07F7A7420AD9C3
:100DB0001CEB040400F1FF3380F00A81A74240F2EB
:100DC00007816444023840EA0640E41B00261DB156
:100DD000D4400023C5E900433146BDE8F0878B428B
:100DE00009D9002D00F0EF800026C5E9000130464A
:100DF0003146BDE8F087B3FA83F6002E4AD18B4224
:100E000002D3824200F2F980841A61EB03030120CD
:100E10009E46002DE0D0C5E9004EDDE702B9FFDEB9
:100E2000B2FA82F2002A40F09280A1EB0C014FEA64
:100E30001C471FFA8CFE0126200CB1FBF7F307FBC1
:100E4000131140EA01410EFB03F0884208D91CEB64
:100E5000010103F1FF3802D2884200F2CB80434601
:100E6000091AA4B2B1FBF7F007FB101144EA0144E0
:100E70000EFB00FEA64508D91CEB040400F1FF316F
:100E800002D2A64500F2BB800846A4EB0E0440EA5D
:100E900003409CE7C6F12007B34022FA07FC4CEA66
:100EA000030C20FA07F401FA06F31C43F9404FEA59
:100EB0001C4900FA06F3B1FBF9F8200C1FFA8CFE6E
:100EC00009FB181140EA014108FB0EF0884202FAC2
:100ED00006F20BD91CEB010108F1FF3A80F0888083
:100EE000884240F28580A8F102086144091AA4B240
:100EF000B1FBF9F009FB101144EA014100FB0EFEC1
:100F00008E4508D91CEB010100F1FF346CD28E45EF
:100F10006AD90238614440EA0840A0FB0294A1EB80
:100F20000E01A142C846A64656D353D05DB1B3EBDD
:100F3000080261EB0E0101FA07F722FA06F3F1400D
:100F40001F43C5E9007100263146BDE8F087C2F1B4
:100F50002003D8400CFA02FC21FA03F3914001432C
:100F60004FEA1C471FFA8CFEB3FBF7F007FB103665
:100F70000B0C43EA064300FB0EF69E4204FA02F411
:100F800008D91CEB030300F1FF382FD29E422DD964
:100F9000023863449B1B89B2B3FBF7F607FB163399
:100FA00041EA034106FB0EF38B4208D91CEB010119
:100FB00006F1FF3816D28B4214D9023E6144C91A99
:100FC00046EA004638E72E46284605E70646E3E6A9
:100FD0001846F8E64B45A9D2B9EB020864EB0C0EB3
:100FE0000138A3E74646EAE7204694E74046D1E7C2
:100FF000D0467BE7023B614432E7304609E7644470
:10100000023842E7704700BF80B485B000AFF86097
:10101000B9601346FB80074AFB681360064ABB6849
:101020001360064AFB88138000BF1437BD465DF885
:10103000047B7047E8090020E0090020E409002053
:1010400080B500AF044B1B68044A11880022184683
:1010500003F05AFD00BF80BDE0090020E409002034
:1010600080B500AF044B1B68044A11880122184662
:1010700003F04AFD00BF80BDE0090020E409002024
:1010800080B582B000AF012007F072F803467B60A4
:10109000012007F06DF803463B607B6806221A705A
:1010A000FFF7CEFF01223968786800F067F8FFF794
:1010B000D7FF786807F064F8386807F061F800BF78
:1010C0000837BD4680BD80B582B000AF012007F073
:1010D0004FF803467B60012007F04AF803463B6067
:1010E0007B6804221A70FFF7ABFF01223968786829
:1010F00000F044F8FFF7B4FF786807F041F838686B
:1011000007F03EF800BF0837BD4680BD80B584B00B
:1011100000AFFFF795FF012007F02AF80346FB60B8
:10112000012007F025F80346BB60FB6805221A7012
:10113000FFF786FF0122B968F86800F01FF80E4B30
:101140001A78FB681A700122B968F86800F016F87E
:10115000BB681B78FB71FB7903F00103002BEED118
:10116000FFF77EFFF86807F00BF8B86807F008F89B
:1011700000BF1037BD4680BD0000002080B584B0A0
:1011800000AFF860B9601346FB800B4B00221A7069
:101190000A4B1868FB88BA68F96804F0E3F900BFE5
:1011A000054B1B7883F00103DBB2002BF8D100BFA5
:1011B00000BF1037BD4680BD00110020E8090020A7
:1011C00080B586B000AFF860B9601346FB80FFF7CA
:1011D00037FFFB880433184606F0CAFF03467B61DD
:1011E000FB88184606F0C4FF03463B617B69032277
:1011F0001A70BB681A0C7B690133D2B21A70BB68D3
:101200001A0A7B690233D2B21A707B690333BA6857
:10121000D2B21A70042239697869FFF7AFFF7B698F
:101220000433FA88F9681846FFF7A8FFFFF718FF9C
:10123000786906F0A5FF386906F0A2FF00BF1837ED
:10124000BD4680BD80B588B000AFF860B960134678
:10125000FB80FB880433184606F08AFF0346BB6117
:10126000FB88184606F084FF03467B61FB8818461E
:1012700006F07EFF03463B61FFF702FFFFF7E0FE4B
:10128000BB6902221A70BB681A0CBB690133D2B267
:101290001A70BB681A0ABB690233D2B21A70BB69F2
:1012A0000333BA68D2B21A7004227969B869FFF7B9
:1012B00065FF0023FB770AE0FB7FFA681A44FB7F97
:1012C00079690B4412781A70FB7F0133FB77FB7F3F
:1012D0009BB2FA889A42EFD8FB881A463969786936
:1012E000FFF74CFFFFF7BCFEFFF710FFFFF7EBFE29
:1012F000B86906F045FF786906F042FF00BF203765
:10130000BD4680BD80B584B000AF7860042006F093
:101310002FFF0346FB60042006F02AFF0346BB6054
:10132000FB6820221A707B681A0CFB680133D2B26A
:101330001A707B681A0AFB680233D2B21A70FB6813
:1013400003337A68D2B21A70FFF79AFEFFF778FE7D
:101350000422B968F868FFF711FFFFF781FEFFF775
:10136000D5FEFFF7B0FEF86806F00AFFB86806F091
:1013700007FF00BF1037BD4680BD000080B500AF3D
:1013800002F00AFC00F068F800F09AFB00F0C4F8E4
:1013900000F014F900F048F900F0F2F900F03CFA1E
:1013A00000F0BCFA00F00EFB00F060FB01222149C6
:1013B000214805F016FF214804F03AFD204804F0CA
:1013C000DDFC00211D4804F0EFFD04211B4804F062
:1013D000EBFD00211B4804F0E7FD0C21194804F047
:1013E000E3FD0421184804F035FF0421174804F0F8
:1013F00031FF01F0EBFC4FF4805215491548FFF71F
:1014000003FE01220421124803F07EFB00F0A6FD3A
:1014100000F094FC01F062FC00F0F2FD01F0B4FA7F
:1014200001F03CFA01F0F4FB00F0D2FD01F074FC95
:10143000F0E700BF9D100020F40B00201C0B0020E3
:10144000D40A00208C0A0020640B0020AC0B002082
:1014500000040240340A002080B594B000AF07F1C8
:10146000200330220021184607F0CEF807F10C03C4
:1014700000221A605A609A60DA601A610023BB6029
:10148000234B1B6C224A43F080531364204B1B6C8C
:1014900003F08053BB60BB6800237B601D4B1B685F
:1014A00023F440431B4A43F400431360194B1B6869
:1014B00003F440437B607B6802233B620123FB62B1
:1014C00010233B630023BB6307F12003184603F09E
:1014D00067FB0346002B01D001F094FF0F23FB6054
:1014E00000233B6100237B610023BB610023FB6180
:1014F00007F10C030021184603F0CAFD0346002B38
:1015000001D001F07FFF00BF5037BD4680BD00BF56
:10151000003802400070004080B584B000AF3B4608
:1015200000221A605A609A60DA60214B214A1A60E0
:101530001F4B00225A601E4B00229A601C4B002257
:101540001A611B4B00221A76194B002283F82020C7
:10155000174B0022DA62164B174A9A62144B00228C
:10156000DA60134B0122DA61114B002283F830203C
:101570000F4B01225A610E4802F0A4FB0346002BD8
:1015800001D001F03FFF05233B6001237B60002376
:10159000BB603B461946064802F058FD0346002B47
:1015A00001D001F02FFF00BF1037BD4680BD00BF46
:1015B000EC090020002001400100000F80B500AFC1
:1015C000174B184A1A60164B4FF482725A60144B2C
:1015D00000229A60124B0022DA60114B00221A613D
:1015E0000F4B00225A610E4B4FF400729A610C4B64
:1015F0000022DA610A4B00221A62094B00225A6269
:10160000074B00229A62064B0A22DA62044803F072
:101610001FFF0346002B01D001F0F4FE00BF80BD88
:10162000340A00200038004080B596B000AF07F1C2
:10163000480300221A605A609A60DA6007F140039A
:1016400000221A605A6007F1240300221A605A60CF
:101650009A60DA601A615A619A613B1D202200216A
:10166000184606F0D1FF444B444A1A60424B40F200
:101670003F625A60404B00229A603F4BC722DA60BB
:101680003D4B00221A613C4B00225A613A4B00222A
:101690009A61394804F022FB0346002B01D001F087
:1016A000B1FE4FF48053BB6407F14803194632483A
:1016B00005F028F80346002B01D001F0A3FE2E48C8
:1016C00004F018FC0346002B01D001F09BFE002320
:1016D0003B6400237B6407F140031946264805F06C
:1016E000CDFB0346002B01D001F08CFE60237B6212
:1016F0000023BB620023FB6200233B6300237B6368
:101700000023BB630023FB6307F124030022194677
:10171000194804F035FF0346002B01D001F072FE9A
:1017200007F124030C221946134804F029FF03464D
:10173000002B01D001F066FE00237B600023BB601C
:101740000023FB6000233B6100237B614FF40053C7
:10175000BB6100233B623B1D1946074805F0FCFBBB
:101760000346002B01D001F04DFE034801F0DCFFE1
:1017700000BF5837BD4680BD8C0A002000000140E4
:1017800080B586B000AF07F1080300221A605A60E6
:101790009A60DA603B4600221A605A601D4B4FF097
:1017A00080421A601B4B0F225A601A4B00229A602B
:1017B000184B4FF0FF32DA60164B00221A61154BBE
:1017C00000229A61134804F089FA0346002B01D0E5
:1017D00001F018FE4FF48053BB6007F1080319466F
:1017E0000C4804F08FFF0346002B01D001F00AFEE5
:1017F00000233B6000237B603B461946054805F00B
:101800003DFB0346002B01D001F0FCFD00BF183763
:10181000BD4680BDD40A002080B58EB000AF07F170
:10182000280300221A605A609A60DA6007F12003E8
:1018300000221A605A603B1D00221A605A609A60AA
:10184000DA601A615A619A61324B334A1A60314B3D
:101850000F225A602F4B00229A602E4B40F2E73243
:10186000DA602C4B00221A612A4B00229A61294827
:1018700004F034FA0346002B01D001F0C3FD4FF40D
:101880008053BB6207F128031946224804F03AFF4F
:101890000346002B01D001F0B5FD1E4804F02AFBE1
:1018A0000346002B01D001F0ADFD00233B62002375
:1018B0007B6207F120031946164805F0DFFA03465C
:1018C000002B01D001F09EFD60237B600023BB60F4
:1018D0000023FB6000237B613B1D002219460D485D
:1018E00004F04EFE0346002B01D001F08BFD3B1DA2
:1018F00004221946074804F043FE0346002B01D09A
:1019000001F080FD034801F00FFF00BF3837BD46EE
:1019100080BD00BF1C0B00200004004080B58CB0CF
:1019200000AF07F10C0324220021184606F06CFEDC
:101930003B1D00221A605A60204B214A1A601F4B3F
:1019400000225A601D4B00229A601C4B4FF6FF721A
:10195000DA601A4B00221A61184B00229A610323A5
:10196000FB6000233B6101237B610023BB610023FB
:10197000FB6100233B6201237B620023BB620023E7
:10198000FB6207F10C0319460C4804F0BDFB03464B
:10199000002B01D001F036FD00237B600023BB60EB
:1019A0003B1D1946054805F069FA0346002B01D096
:1019B00001F028FD00BF3037BD4680BD640B00201C
:1019C0000008004080B58CB000AF07F10C03242262
:1019D0000021184606F018FE3B1D00221A605A60CE
:1019E000204B214A1A601F4B00225A601D4B0022D7
:1019F0009A601C4B4FF0FF32DA601A4B00221A61DA
:101A0000184B00229A610323FB6000233B610123F2
:101A10007B610023BB610023FB6100233B62012348
:101A20007B620023BB620023FB6207F10C031946B3
:101A30000C4804F069FB0346002B01D001F0E2FCE6
:101A400000237B600023BB603B1D1946054805F061
:101A500015FA0346002B01D001F0D4FC00BF30374B
:101A6000BD4680BDAC0B0020000C004080B500AF2F
:101A7000114B124A1A60104B4FF4E1325A600E4B70
:101A800000229A600C4B0022DA600B4B00221A6194
:101A9000094B0C225A61084B00229A61064B002226
:101AA000DA61054805F0BEFA0346002B01D001F0CB
:101AB000A9FC00BF80BD00BFF40B00200010014056
:101AC00080B58AB000AF07F1140300221A605A6093
:101AD0009A60DA601A6100233B617A4B1B6B794A8A
:101AE00043F004031363774B1B6B03F004033B6168
:101AF0003B690023FB60734B1B6B724A43F080030E
:101B00001363704B1B6B03F08003FB60FB680023C7
:101B1000BB606C4B1B6B6B4A43F001031363694B57
:101B20001B6B03F00103BB60BB6800237B60654B4C
:101B30001B6B644A43F002031363624B1B6B03F09D
:101B400002037B607B6800224FF400515E4802F084
:101B5000DBFF012204215D4802F0D6FF002241F2A2
:101B600008615A4802F0D0FF4FF400537B61012313
:101B7000BB610023FB6100233B6207F1140319469C
:101B8000514802F025FE4FF440437B614FF40413AB
:101B9000BB610123FB6107F1140319464A4802F0B7
:101BA00017FE0C237B614FF44413BB610023FB61E0
:101BB00007F114031946464802F00AFE03237B612D
:101BC0004FF44413BB610023FB6107F11403194672
:101BD0003E4802F0FDFD41F20C437B610123BB61F5
:101BE0000023FB6100233B6207F1140319463748C9
:101BF00002F0EEFD4FF480537B614FF40413BB61A0
:101C00000123FB6107F114031946314802F0E0FD9E
:101C10004FF498737B614FF40413BB610123FB61A4
:101C200007F114031946294802F0D2FD4FF400735E
:101C30007B610123BB610023FB6102233B6207F14F
:101C400014031946214802F0C3FD00220521062095
:101C500002F0F5FC062002F00EFD0022052107200F
:101C600002F0EDFC072002F006FD0022052108200D
:101C700002F0E5FC082002F0FEFC0022052109200C
:101C800002F0DDFC092002F0F6FC002206210A2009
:101C900002F0D5FC0A2002F0EEFC002206211720FB
:101CA00002F0CDFC172002F0E6FC002206212820DD
:101CB00002F0C5FC282002F0DEFC00BF2837BD463C
:101CC00080BD00BF0038024000080240000402400E
:101CD0000000024080B588B000AF0346FB7107F1F9
:101CE0000C0300221A605A609A60DA601A61FB796C
:101CF000002B0FD04FF40073FB6001233B610023E6
:101D00007B610223BB6107F10C0319460A4802F00C
:101D10005FFD0CE04FF40073FB6000233B61002388
:101D20007B6107F10C031946034802F051FD00BF27
:101D30002037BD4680BD00BF000402402DE9F043BE
:101D4000A3B014AF404801F051F801F03BFB00F0A4
:101D5000ADFE00F0A9F83D4B1B681846FEF7FCFBF2
:101D6000804689463A4B1B681846FEF7F5FB044649
:101D70000D46384B1B887B63374B1B783B63374BD7
:101D80001B78FB62364B1B78BB62364B1B787B6241
:101D9000354B1B783B62354B1B78FB61344B1B7812
:101DA000BB61344B1A687A61334B1B783B61334B10
:101DB0001E68334B1B78FB60324B1B78BB60324B89
:101DC0001B787B60314B1B781846314B1B781946CA
:101DD000304B1B781A46304B1B781393129211919B
:101DE000109079680F91B9680E91F9680D910C9671
:101DF00039690B917A690A92BA690992FA6908926B
:101E00003A6A07927A6A0692BA6A0592FA6A049264
:101E10003A6B03927B6B0293CDE9004542464B46F9
:101E20001E491F4806F014FC1D48FEF7D9F9034669
:101E30009AB2C8231A491B4805F041F900BF3C3744
:101E4000BD46BDE8F08300BFE8100020F010002080
:101E5000F4100020E4100020BC100020BE10002070
:101E6000C0100020BD100020BF100020C1100020B5
:101E7000CD100020D4100020CE100020D81000205B
:101E8000B0100020B4100020B2100020B1100020CB
:101E9000B5100020B3100020CC10002048FC000832
:101EA0009C0C0020F40B0020F0B58BB008AF1F4B4A
:101EB0001B789C461E4B1B789E461E4B1B781A4671
:101EC0001D4B1B7819461D4B1B7818461C4B1B7865
:101ED0001C461C4B1B781D461B4B1B781E461B4B80
:101EE0001B787B601A4B1B7807937B6806930596DB
:101EF000049503940290019100927346624615493D
:101F0000154806F0A5FB4FF42430FFF7FBF9124803
:101F1000FEF766F903469BB21A464FF424310E4889
:101F2000FFF790F900BF0C37BD46F0BDBC10002094
:101F3000BE100020BD100020BF100020CD100020DA
:101F4000CE100020B0100020B4100020B1100020EE
:101F5000B5100020D8FC00080411002080B588B01E
:101F600008AF13224FF424310D48FFF729F90D4B28
:101F700007930D4B06930D4B05930D4B04930D4B9F
:101F800003930D4B02930D4B01930D4B00930D4B9F
:101F90000D4A0E49024806F07BFB00BFBD4680BDDE
:101FA00004110020B5100020B1100020B410002052
:101FB000B0100020CE100020CD100020BF10002057
:101FC000BD100020BE100020BC100020F8FC00084E
:101FD00080B500AF084B1A68084B1B68D31A47F24C
:101FE0002F52934205D9FFF7A9FE034B1B68034A02
:101FF000136000BF80BD00BFA4100020A810002007
:1020000080B500AFA24B1A68A24B1B68D31A132BE2
:1020100040F21284A048FEF7E3F80346062B40F294
:102020000B849E4B1B78002B09D09B48FEF7D8F8F9
:1020300003469AB2C8239849994805F040F8964853
:10204000FEF7CEF80346072B29D106229549924880
:1020500006F08FFB0346002B21D1934B184606F068
:1020600059F80346DAB2914B1A7000F09BFE8B4B85
:102070001B78002B10D08D4B1B781A468C498D484D
:1020800006F0E6FA8B48FEF7ABF803469AB2C8238F
:102090008849834805F013F8FFF750FECCE37E48EB
:1020A000FEF79EF80346072B29D1062282497A487B
:1020B00006F05FFB0346002B21D17B4B184606F050
:1020C00029F80346DAB27D4B1A7000F06BFE734BB1
:1020D0001B78002B10D0794B1B781A46784975482D
:1020E00006F0B6FA7348FEF77BF803469AB2C823A7
:1020F00070496B4804F0E3FFFFF720FE9CE30822E1
:102100007049654806F035FB0346002B29D162482B
:10211000FEF766F80346092B23D16B4B01221A7098
:102120006A4B184605F0F6FF0346DAB2684B1A70A0
:1021300000F038FE594B1B78002B00F07D83644B78
:102140001B781A4663495B4806F082FA5948FEF745
:1021500047F803469AB2C8235649514804F0AFFFE6
:102160006AE34D48FEF73CF80346092B2BD10822C1
:102170005949494806F0FDFA0346002B23D1574B35
:1021800001221A70514B184605F0C4FF0346DAB21B
:10219000534B1A7000F006FE404B1B78002B00F0EA
:1021A0004B834F4B1B781A464E49424806F050FA73
:1021B0004048FEF715F803469AB2C8233D4938480F
:1021C00004F07DFF38E33448FEF70AF80346092B94
:1021D0002BD108224449304806F0CBFA0346002BA5
:1021E00023D1394B01221A70384B184605F092FF63
:1021F0000346DAB23D4B1A7000F0D4FD274B1B7832
:10220000002B00F01983394B1B781A4638492948AE
:1022100006F01EFA2748FDF7E3FF03469AB2C823EB
:1022200024491F4804F04BFF06E31B48FDF7D8FF85
:102230000346092B64D108222E49174806F099FA63
:102240000346002B5CD1254B01221A701F4B184608
:1022500005F060FF0346DAB2274B1A7000F0A2FDCA
:102260000E4B1B78002B00F0E782234B1B781A469D
:102270002249104806F0ECF90E48FDF7B1FF03467D
:102280009AB2C8230B49064804F019FFD4E200BFF4
:10229000A4100020A0100020380C0020681100209D
:1022A000F40B00202CFD00083E0C0020B010002094
:1022B00034FD00089C0C002048FD0008B1100020EF
:1022C00050FD000864FD0008B6100020400C0020FE
:1022D000B410002070FD000880FD0008B710002039
:1022E000B51000208CFD00089CFD0008B2100020F5
:1022F000A8FD0008BCFD0008B3100020C8FD0008C0
:10230000AA48FDF76DFF0346072B29D10622A849ED
:10231000A64806F02EFA0346002B21D1A54B1846FD
:1023200005F0F8FE0346DAB2A34B1A7000F03AFD4E
:10233000A24B1B78002B10D09F4B1B781A46A0494C
:10234000A04806F085F99F48FDF74AFF03469AB278
:10235000C8239C499C4804F0B2FEFFF7EFFC6BE2F7
:102360009248FDF73DFF0346072B29D106229749E6
:102370008E4806F0FEF90346002B21D18D4B1846FE
:1023800005F0C8FE0346DAB2914B1A7000F00AFD60
:102390008A4B1B78002B10D08D4B1B781A468D4929
:1023A000884806F055F98748FDF71AFF03469AB2A8
:1023B000C8238449844804F082FEFFF7BFFC3BE257
:1023C0007A48FDF70DFF0346092B2BD108228249DD
:1023D000764806F0CEF90346002B23D17F4B01222D
:1023E0001A707F4B184605F095FE0346DAB27D4B16
:1023F0001A7000F0D7FC714B1B78002B00F01C8288
:10240000784B1B781A4678496E4806F021F96D48DA
:10241000FDF7E6FE03469AB2C8236A496A4804F00B
:102420004EFE09E26148FDF7DBFE0346092B2BD186
:1024300008226E495D4806F09CF90346002B23D123
:102440006B4B01221A70664B184605F063FE03467B
:10245000DAB2684B1A7000F0A5FC584B1B78002BC1
:1024600000F0EA81634B1B781A466349554806F031
:10247000EFF85448FDF7B4FE03469AB2C823514919
:10248000514804F01CFED7E14848FDF7A9FE034679
:10249000072B29D106225949444806F06AF9034618
:1024A000002B21D1434B184605F034FE0346DAB227
:1024B000534B1A7000F076FC404B1B78002B10D069
:1024C0004F4B1B781A464F493E4806F0C1F83D482D
:1024D000FDF786FE03469AB2C8233A493A4804F00B
:1024E000EEFDFFF72BFCA7E13048FDF779FE034630
:1024F000072B29D1062244492C4806F03AF9034615
:10250000002B21D12B4B184605F004FE0346DAB20E
:102510003E4B1A7000F046FC284B1B78002B10D065
:102520003A4B1B781A463A49264806F091F8254856
:10253000FDF756FE03469AB2C8232249224804F00A
:10254000BEFDFFF7FBFB77E11848FDF749FE0346A8
:10255000092B67D108222F49144806F00AF90346CF
:10256000002B5FD12C4B01221A701D4B184605F031
:10257000D1FD0346DAB2294B1A7000F013FC0F4B61
:102580001B78002B00F05881244B1B781A462449F5
:102590000C4806F05DF80B48FDF722FE03469AB2A0
:1025A000C8230849084804F08AFD45E1380C00209A
:1025B000DCFD00083E0C0020CD100020681100203A
:1025C000E4FD00089C0C0020F40B0020F8FD00083E
:1025D000CE10002000FE000814FE0008D1100020DC
:1025E000400C0020CF10002020FE000834FE000820
:1025F000D2100020D010002040FE000854FE000839
:10260000BC1000205CFE000870FE0008BD10002019
:1026100078FE00088CFE0008C2100020BE100020CA
:1026200098FE00088548FDF7DBFD0346092B2BD1FA
:1026300008228349814806F09CF80346002B23D1E9
:10264000804B01221A70804B184605F063FD03464B
:10265000DAB27E4B1A7000F0A5FB7D4B1B78002B85
:1026600000F0EA80794B1B781A467A497A4805F0DF
:10267000EFFF7948FDF7B4FD03469AB2C8237649C7
:10268000764804F01CFDD7E06C48FDF7A9FD034631
:10269000092B2BD108227249684806F06AF80346D4
:1026A000002B23D16F4B01221A70674B184605F09F
:1026B00031FD0346DAB26C4B1A7000F073FB644BC9
:1026C0001B78002B00F0B880674B1B781A466749CF
:1026D000614805F0BDFF6048FDF782FD03469AB2F0
:1026E000C8235D495D4804F0EAFCA5E05348FDF7C6
:1026F00077FD0346092B2BD108225D494F4806F090
:1027000038F80346002B23D14E4B01221A704E4B52
:10271000184605F0FFFC0346DAB2564B1A7000F07B
:1027200041FB4B4B1B78002B00F08680514B1B78F4
:102730001A465149484805F08BFF4748FDF750FDC0
:1027400003469AB2C8234449444804F0B8FC73E0F5
:1027500006224A49394806F00CF80346002B28D1D6
:102760003648FDF73DFD0346072B22D1444B01229D
:102770001A70444B184605F0CDFC0346DAB2424BC2
:102780001A7000F00FFB324B1B78002B54D03E4BDD
:102790001B781A463D49304805F05AFF2E48FDF790
:1027A0001FFD03469AB2C8232B492C4804F087FC2E
:1027B00042E006223649214805F0DBFF0346002BA4
:1027C00025D11E48FDF70CFD0346072B1FD12D4BCD
:1027D000184605F09FFC0346DAB21D4B1A7000F054
:1027E000E1FA1B4B1B78002B26D0194B1B781A469D
:1027F0002849194805F02CFF1748FDF7F1FC03465E
:102800009AB2C8231449154804F059FC14E000F0AA
:10281000C9FA0F4B1B78002B0ED01F490E4805F04C
:1028200017FF0D48FDF7DCFC03469AB2C8230A499E
:102830000A4804F044FCFFE700BF80BD380C0020CC
:10284000ACFE0008C3100020400C0020BF10002088
:1028500068110020B8FE00089C0C0020F40B00203A
:10286000CCFE0008C2100020C0100020D8FE0008D6
:10287000ECFE0008C1100020F8FE00080CFF000864
:10288000C41000203E0C0020CC10002014FF0008D3
:1028900024FF00082CFF000840FF000880B500AFAF
:1028A000304B1B78002B2BD02F4B1B78002B15D0D7
:1028B00001212E4802F010F903461A462C4B1A70DB
:1028C0002B4B1B78002B04D02A4B1B680F225A631A
:1028D00011E0284B1B6819225A630CE0244B1B782B
:1028E000002B04D0234B1B680F225A6303E0214BBB
:1028F0001B6819225A631B4B00221A70FFF71EFA3D
:102900001D4B1B78002B2BD01C4B1B78002B15D09C
:1029100004211B4802F0E0F803461A46194B1A70CE
:10292000184B1B78002B04D0124B1B6805221A642D
:1029300011E0104B1B680F221A640CE0114B1B783E
:10294000002B04D00B4B1B6805221A6403E0094BD3
:102950001B680F221A64084B00221A70FFF7EEF969
:1029600000BF80BDC2100020BE1000200004024045
:10297000C01000208C0A0020C3100020BF100020CF
:1029800000000240C110002080B500AF424B1B7810
:10299000002B3DD0414B1B78002B04D1404B1B68D2
:1029A00000225A632FE03D4B1B78012B04D13C4B96
:1029B0001B68C8225A6326E0384B1B78022B05D1CE
:1029C000374B1B684FF4C8725A631CE0334B1B78BB
:1029D000032B05D1324B1B684FF416725A6312E079
:1029E0002E4B1B78042B05D12D4B1B684FF44872DE
:1029F0005A6308E0294B1B78052B04D1284B1B6830
:102A000040F2E7325A63244B00221A70FFF796F91E
:102A1000244B1B78002B3DD0234B1B78002B04D17B
:102A20001F4B1B6800229A632FE01F4B1B78012B62
:102A300004D11B4B1B68C8229A6326E01A4B1B78F3
:102A4000022B05D1164B1B684FF4C8729A631CE029
:102A5000154B1B78032B05D1114B1B684FF41672D5
:102A60009A6312E0104B1B78042B05D10C4B1B68AA
:102A70004FF448729A6308E00B4B1B78052B04D186
:102A8000074B1B6840F2E7329A63064B00221A702C
:102A9000FFF754F900BF80BDD1100020CF100020F7
:102AA0001C0B0020D2100020D010002080B500AFF9
:102AB000C82001F0E3F82D4B1B685B6A2C4A1360B9
:102AC0002C4B1B685B6A2C4A1360642001F0D6F81B
:102AD000264B1B685A6A264B1B68D31A4FF4167292
:102AE00002FB03F3254AA2FB03231B0A1A46244BCD
:102AF0001A60204B1B685A6A1F4B1B68D31A4FF48D
:102B0000167202FB03F31D4AA2FB03231B0A1A469B
:102B10001C4B1A601B4B1B68184600F039F8034623
:102B20001A46194B1B789A4204D0164B4FF0FF32CD
:102B30001A6004E0144B1B781A46124B1A60104BB3
:102B40001B68184600F024F803461A460F4B1B7802
:102B50009A4204D00A4B4FF0FF321A6004E00B4B4C
:102B60001B781A46064B1A6000BF80BD640B00201C
:102B7000E0100020AC0B0020DC100020ABAAAAAAB9
:102B8000D8100020D4100020CF100020D01000203A
:102B900080B483B000AF78607B68632B01DC0023D6
:102BA0002FE07B68B3F5167F06DB7B6840F271622D
:102BB000934201DC012324E07B6840F2716293427E
:102BC00006DD7B6840F6BD22934201DC022318E05B
:102BD0007B6840F6BD22934206DD7B6841F23502F8
:102BE000934201DC03230CE07B6841F235029342FF
:102BF00006DD7B6841F24F42934201DC042300E092
:102C0000052318460C37BD465DF8047B704700006D
:102C100080B500AF294B1B78002B25D0284B1B78A3
:102C2000002B14D04FF4967001F028F808212548A5
:102C300001F052FF03461A46234B1A70224B1B78B1
:102C40001A464FF48061214801F05EFF07E01E4BF9
:102C50001B781A464FF480611C4801F055FF174B52
:102C600000221A70FFF76AF8194B1B78002B23D04B
:102C7000184B1B78002B13D04FF4967000F0FEFF1A
:102C80000221124801F028FF03461A46124B1A701F
:102C9000114B1B781A4608210C4801F035FF06E05D
:102CA0000D4B1B781A460821084801F02DFF084BF0
:102CB00000221A70FFF742F800BF80BDB610002056
:102CC000B410002000000240B210002000040240B6
:102CD000B7100020B5100020B310002080B500AF61
:102CE0000A4B1A680A4B1B68D31AB3F57A7F0AD3CA
:102CF00000F058F84FF40051064801F01EFF034B56
:102D00001B68034A136000BF80BD00BFA4100020F1
:102D1000AC1000200008024080B500AF064B1B78C5
:102D2000002B02D000F00CF804E00122042103483B
:102D300001F0EAFE00BF80BDCC100020000402407C
:102D400080B500AF084B1A68084B1B68D31AB3F55F
:102D50007A7F07D90421064801F0EFFE024B1B6879
:102D6000024A136000BF80BDA4100020C8100020DC
:102D70000004024080B483B000AF7860084B1B6849
:102D800000225A6200BF064B1B685B6A7A689A424F
:102D9000F9D800BF00BF0C37BD465DF8047B704713
:102DA000D40A002080B500AF0648FDF719FA0346A3
:102DB0001A460021034805F027FC034B00221A7035
:102DC00000BF80BD380C00209C10002080B500AFF3
:102DD0000120FEF77FFF01224FF40071024801F04D
:102DE00093FE00BF80BD00BF0004024080B588B0E4
:102DF00000AF786000224FF400718A4801F084FE31
:102E00004FF47A70FFF7B6FF01224FF40071854846
:102E100001F07AFE1420FFF7ADFF0020FEF75AFF05
:102E20007820FFF7A7FF0023FB6187E00023FB76F4
:102E300000237B6176E07C4B1B687C4A136021E0B9
:102E4000794B1A68794B1B68D31A042B1AD9784B23
:102E50001B78002B0DD07749774805F0F9FB7648B1
:102E6000FDF7BEF903469AB2C8237349734804F0CC
:102E700026F9734B734A1A60734B724A1A60FFF754
:102E8000A5FFCCE04FF40071664801F025FE034633
:102E9000002BD5D01E20FFF76DFF4FF40071614865
:102EA00001F01AFE0346002B07D0FB7E5B005BB2ED
:102EB00043F001035BB2FB7602E0FB7E5B00FB7636
:102EC000594B1B68594A136021E0574B1A68574BFE
:102ED0001B68D31A042B1AD9554B1B78002B0DD025
:102EE0005A49554805F0B4FB5348FDF779F90346B4
:102EF0009AB2C8235049514804F0E1F8504B514A66
:102F00001A60514B4F4A1A60FFF760FF87E04FF499
:102F10000071444801F0E0FD0346002BD5D17B69E8
:102F200001337B617B69072B85DD07F10802FB69B3
:102F30001344FA7E1A70FB690133FB61FB69042BB1
:102F40007FF774AFFFF742FF3A7A7B681A707A7A9C
:102F50007B685A70BA7A7B689A70FA7A7B68DA7002
:102F60003A7B7B681A713B7A9AB27B7A9BB21344A4
:102F70009AB2BB7A9BB213449AB2FB7A9BB21344C7
:102F80007B827B8ADBB29AB23B7B9BB29A421AD09D
:102F9000274B1B78002B0DD02D49274805F058FBF7
:102FA0002548FDF71DF903469AB2C8232249234854
:102FB00004F085F8224B234A1A60234B214A1A60F9
:102FC000FFF704FF2BE07B689B781B021AB27B683B
:102FD000DB781BB213431BB23B827B681B781B025E
:102FE0001AB27B685B781BB213431BB2FB813B8A2E
:102FF00007EE903AB8EE677AF2EE046AC7EE267AE8
:103000000F4BC3ED007AFB8907EE903AB8EE677A72
:10301000F2EE046AC7EE267A0B4BC3ED007A203736
:10302000BD4680BD00040240A4100020F81000201E
:103030006811002054FF00089C0C0020F40B0020B5
:10304000F0100020000080BFF41000205CFF00089A
:1030500068FF000880B483B000AF0346FB80FB88A4
:10306000012B14D18D4B1A688D4B1B68D31AB3F505
:10307000FA7FC0F00D818B4B1B78002B02D08A4B5E
:1030800001221A70854B1B68854A136000E1FB889A
:10309000042B14D1814B1A68814B1B68D31AB3F5EA
:1030A000FA7FC0F0F580814B1B78002B02D0804B5B
:1030B00001221A70794B1B68794A1360E8E0FB889B
:1030C000082B14D1754B1A687A4B1B68D31AB3F5C9
:1030D000FA7FC0F0DD80784B1B78002B02D0774B55
:1030E00001221A706D4B1B68724A1360D0E0FB8896
:1030F000022B14D1694B1A686E4B1B68D31AB3F5B7
:10310000FA7FC0F0C5806E4B1B78002B02D06D4B50
:1031100001221A70614B1B68664A1360B8E0FB8895
:10312000102B1AD15D4B1A685D4B1B68D31AB3F58F
:10313000FA7FC0F0AD805B4B00221A70624B1B78A7
:1031400083F00103DAB2604B1A70574B01221A70F8
:10315000524B1B68524A13609AE0FB88B3F5807F9C
:103160001AD14E4B1A684E4B1B68D31AB3F5FA7F2F
:10317000C0F08E804D4B00221A70544B1B7883F0A8
:103180000103DAB2514B1A70494B01221A70434BBA
:103190001B68434A13607BE0FB88B3F5804F19D16D
:1031A0003E4B1A683E4B1B68D31AB3F5FA7F6FD3B8
:1031B000414B00221A70464B1B7883F00103DAB2B0
:1031C000434B1A703D4B01221A70344B1B68344A32
:1031D00013605DE0FB88B3F5004F19D12F4B1A68DF
:1031E0002F4B1B68D31AB3F5FA7F51D3344B00220F
:1031F0001A70384B1B7883F00103DAB2354B1A7022
:10320000304B01221A70254B1B68254A13603FE0A2
:10321000FB88B3F5805F1CD1204B1A68204B1B68DC
:10322000D31AB3F5FA7F33D32B4B01221A702B4BF1
:103230001B780133DAB2294B1A70284B1B78062B06
:1032400002D1264B00221A70144B1B68144A1360DB
:103250001EE0FB88202B1BD1104B1A68104B1B68FB
:10326000D31AB3F5FA7F13D31D4B01221A701D4BED
:103270001B780133DAB21B4B1A701A4B1B78062BE2
:1032800002D1184B00221A70044B1B68044A1360C9
:1032900000BF0C37BD465DF8047B7047A4100020CA
:1032A000FC100020BE100020C2100020BF10002023
:1032B000C3100020B8100020B4100020B610002069
:1032C000B5100020B7100020C0100020C110002051
:1032D000B2100020B3100020D1100020CF10002029
:1032E000D2100020D010002080B582B000AF7860EE
:1032F0007B681A68104B1B689A4219D10F4B1B78D8
:10330000632B06D80D4B1B781A460D4B19780D4BC5
:1033100099540D4B1B680D4A1360084B1B78013301
:10332000DAB2064B1A7001220549034803F059FF2F
:1033300000BF0837BD4680BDF40B00209C10002064
:103340009D100020380C0020A4100020A0100020A8
:1033500080B483B000AF78607B681A680B4B1B6841
:103360009A420CD10A4B1B680133094A1360084B7F
:103370001B68B3F1FF3F02D1054B00221A6000BF6A
:103380000C37BD465DF8047B704700BF1C0B002066
:10339000A410002080B483B000AF78607B681A6806
:1033A000064B1B689A4202D1054B01221A7000BFDE
:1033B0000C37BD465DF8047B704700BF340A00201F
:1033C0000011002080B500AF0B4800F0BFFC4FF4A7
:1033D0007A71094800F0A1FD074800F029FE034674
:1033E0009AB2064B1A80044800F064FD044B012297
:1033F0001A7000BF80BD00BFEC090020E41000205F
:10340000C410002080B400AF72B600BFFEE7000019
:1034100080B483B000AF00237B60104B5B6C0F4A1D
:1034200043F4804353640D4B5B6C03F480437B6037
:103430007B6800233B60094B1B6C084A43F08053B8
:103440001364064B1B6C03F080533B603B6800BF6A
:103450000C37BD465DF8047B704700BF0038024062
:1034600080B58AB000AF786007F1140300221A60BB
:103470005A609A60DA601A617B681B68174A934247
:1034800027D100233B61164B5B6C154A43F48073D4
:103490005364134B5B6C03F480733B613B69002303
:1034A000FB600F4B1B6B0E4A43F0010313630C4B85
:1034B0001B6B03F00103FB60FB6820237B6103238C
:1034C000BB610023FB6107F114031946054801F0B5
:1034D0007FF900BF2837BD4680BD00BF00200140F6
:1034E000003802400000024080B58AB000AF78602A
:1034F00007F1140300221A605A609A60DA601A61B8
:103500007B681B681D4A934234D100233B611C4BEE
:103510001B6C1B4A43F480431364194B1B6C03F46C
:1035200080433B613B690023FB60154B1B6B144AD6
:1035300043F002031363124B1B6B03F00203FB60A7
:10354000FB684FF460437B610223BB610023FB6196
:1035500003233B6205237B6207F1140319460948E4
:1035600001F036F900220721242001F068F8242018
:1035700001F081F800BF2837BD4680BD003800400B
:10358000003802400004024080B586B000AF786089
:103590007B681B68224A93420ED100237B61214B3A
:1035A0005B6C204A43F0010353641E4B5B6C03F0D9
:1035B00001037B617B692EE07B681B68B3F1804F60
:1035C0000ED100233B61174B1B6C164A43F00103DD
:1035D0001364144B1B6C03F001033B613B691AE05D
:1035E0007B681B68104A934215D10023FB600D4B8A
:1035F0001B6C0C4A43F0020313640A4B1B6C03F070
:103600000203FB60FB6800220D211D2001F017F86A
:103610001D2001F030F800BF1837BD4680BD00BF47
:1036200000000140003802400004004080B58CB02A
:1036300000AF786007F11C0300221A605A609A609C
:10364000DA601A617B681B68324A93422CD10023EE
:10365000BB61314B1B6C304A43F0040313642E4BA7
:103660001B6C03F00403BB61BB6900237B612A4B25
:103670001B6B294A43F002031363274B1B6B03F0B8
:1036800002037B617B69C023FB6102233B62002351
:103690007B620023BB620223FB6207F11C03194615
:1036A0001E4801F095F830E07B681B681C4A934285
:1036B0002BD100233B61184B1B6C174A43F00803C6
:1036C0001364154B1B6C03F008033B613B6900233B
:1036D000FB60114B1B6B104A43F0010313630E4B4D
:1036E0001B6B03F00103FB60FB680323FB610223F8
:1036F0003B6200237B620023BB620223FB6207F173
:103700001C031946074801F063F800BF3037BD4677
:1037100080BD00BF000800400038024000040240A5
:10372000000C00400000024080B58AB000AF786015
:1037300007F1140300221A605A609A60DA601A6175
:103740007B681B68244A93421FD100233B61234BB3
:103750001B6B224A43F001031363204B1B6B03F0E6
:1037600001033B613B694FF410637B610223BB6142
:103770000023FB6100233B6201237B6207F11403FA
:103780001946174801F024F822E07B681B68154AA7
:1037900093421DD10023FB60104B1B6B0F4A43F07B
:1037A000010313630D4B1B6B03F00103FB60FB680C
:1037B000C0237B610223BB610023FB6100233B62CA
:1037C00002237B6207F114031946054801F000F853
:1037D00000BF2837BD4680BD0000014000380240D0
:1037E000000002400004004080B58AB000AF78605D
:1037F00007F1140300221A605A609A60DA601A61B5
:103800007B681B681D4A934234D100233B611C4BEB
:103810005B6C1B4A43F010035364194B5B6C03F061
:1038200010033B613B690023FB60154B1B6B144A83
:1038300043F001031363124B1B6B03F00103FB60A6
:10384000FB684FF4C0637B610223BB610023FB6113
:1038500003233B6207237B6207F1140319460948DF
:1038600000F0B6FF00220E21252000F0E8FE252002
:1038700000F001FF00BF2837BD4680BD00100140A9
:10388000003802400000024080B400AFFEE780B480
:1038900000AFFEE780B400AFFEE780B400AFFEE704
:1038A00080B400AFFEE780B400AF00BFBD465DF856
:1038B000047B704780B400AF00BFBD465DF8047B59
:1038C000704780B400AF00BFBD465DF8047B704711
:1038D00080B500AF00F0B2F900BF80BD80B500AF89
:1038E000012001F045F900BF80BD80B500AF022086
:1038F00001F03EF900BF80BD80B500AF042001F0AB
:1039000037F900BF80BD80B500AF082001F030F965
:1039100000BF80BD80B500AF102001F029F900BFC5
:1039200080BD80B500AF202001F022F94FF48070F7
:1039300001F01EF900BF80BD80B500AF024802F063
:1039400017FD00BF80BD00BF1C0B002080B500AF7D
:10395000024801F09BFE00BF80BD00BF340A00207A
:1039600080B500AF024803F06DFC00BF80BD00BF12
:10397000F40B002080B500AF4FF4805001F0F8F850
:103980004FF4804001F0F4F84FF4004001F0F0F8FB
:1039900000BF80BD80B400AF01231846BD465DF86E
:1039A000047B704780B582B000AF7860396004F066
:1039B000B5FB034616221A604FF0FF33184608374E
:1039C000BD4680BD80B582B000AF78604FF0FF315A
:1039D0007868FFF7E7FFFEE780B586B000AFF860D4
:1039E000B9607A6000237B610AE0AFF30080014692
:1039F000BB685A1CBA60CAB21A707B6901337B611A
:103A00007A697B689A42F0DB7B6818461837BD46B6
:103A100080BD80B586B000AFF860B9607A600023E1
:103A20007B6109E0BB685A1CBA601B781846AFF38B
:103A300000807B6901337B617A697B689A42F1DBA4
:103A40007B6818461837BD4680BD80B483B000AF90
:103A500078604FF0FF3318460C37BD465DF8047BA5
:103A6000704780B483B000AF786039603B684FF432
:103A700000525A60002318460C37BD465DF8047B9F
:103A8000704780B483B000AF7860012318460C37CC
:103A9000BD465DF8047B704780B485B000AFF86028
:103AA000B9607A60002318461437BD465DF8047B80
:103AB0007047000080B586B000AF7860144A154B9F
:103AC000D31A7B617B693B61134B1B68002B02D1CE
:103AD000114B124A1A60104B1A687B6813443A69FA
:103AE0009A4207D204F01AFB03460C221A604FF0E8
:103AF000FF3309E0084B1B68FB60074B1A687B68C3
:103B00001344054A1360FB6818461837BD4680BD4C
:103B100000000120000400006C110020B011002002
:103B200080B400AF064BD3F88830054A43F47003E5
:103B3000C2F8883000BFBD465DF8047B704700BF07
:103B400000ED00E0DFF834D00D480E490E4A0023A6
:103B500002E0D458C4500433C4188C42F9D30B4A41
:103B60000B4C002301E013600432A242FBD3FFF7A9
:103B7000D7FF04F0D9FAFDF701FC704700000120DF
:103B800000000020C409002018040108C409002016
:103B9000B0110020FEE7000080B500AF0E4B1B689F
:103BA0000D4A43F4007313600B4B1B680A4A43F43D
:103BB00080631360084B1B68074A43F480731360EB
:103BC000032000F031FD0F2000F008F8FFF720FC83
:103BD0000023184680BD00BF003C024080B582B083
:103BE00000AF7860124B1A68124B1B7819464FF4DD
:103BF0007A73B3FBF1F3B2FBF3F3184600F049FD1F
:103C00000346002B01D001230EE07B680F2B0AD85E
:103C1000002279684FF0FF3000F011FD064A7B6802
:103C20001360002300E0012318460837BD4680BD1D
:103C3000040000200C0000200800002080B400AF29
:103C4000064B1B781A46064B1B681344044A136044
:103C500000BFBD465DF8047B704700BF0C0000202C
:103C60007011002080B400AF034B1B681846BD469E
:103C70005DF8047B704700BF7011002080B584B0F0
:103C800000AF7860FFF7EEFFB8607B68FB60FB6811
:103C9000B3F1FF3F05D00A4B1B781A46FB6813446B
:103CA000FB6000BFFFF7DEFF0246BB68D31AFA686D
:103CB0009A42F7D800BF00BF1037BD4680BD00BF95
:103CC0000C00002080B584B000AF78600023FB7347
:103CD0007B68002B01D1012333E07B681B6C002B38
:103CE00009D17868FFF7BCFB7B6800225A647B68C7
:103CF000002283F83C207B681B6C03F01003002B30
:103D000018D17B681B6C23F4885323F0020343F023
:103D100002027B681A64786800F0BAFA7B680022B5
:103D20005A647B681B6C23F0030343F001027B6839
:103D30001A6401E00123FB737B68002283F83C20B6
:103D4000FB7B18461037BD4680BD000080B485B0AF
:103D500000AF78600023BB607B6893F83C30012B98
:103D600001D1022397E07B68012283F83C207B6825
:103D70001B689B6803F00103012B18D07B681B684C
:103D80009A687B681B6842F001029A60454B1B6889
:103D9000454AA2FB03239A0C13465B001344BB6005
:103DA00002E0BB68013BBB60BB68002BF9D17B68BC
:103DB0001B689B6803F00103012B5FD17B681B6CC0
:103DC00023F4E06323F0010343F480727B681A64F8
:103DD0007B681B685B6803F48063002B07D07B68FB
:103DE0001B6C23F4405343F480527B681A647B6855
:103DF0001B6C03F48053B3F5805F06D17B685B6C6A
:103E000023F006027B685A6402E07B6800225A6451
:103E10007B68002283F83C20244BFB607B681B6896
:103E20006FF022021A60FB685B6803F01F03002B2F
:103E30000FD17B681B689B6803F04053002B29D18E
:103E40007B681B689A687B681B6842F080429A60B6
:103E500020E07B681B68164A93421BD17B681B6875
:103E60009B6803F04053002B14D17B681B689A6851
:103E70007B681B6842F080429A600BE07B681B6C99
:103E800043F010027B681A647B685B6C43F00102AC
:103E90007B685A64002318461437BD465DF8047BDE
:103EA000704700BF0400002083DE1B430023014055
:103EB0000020014080B483B000AF78607B6893F845
:103EC0003C30012B01D1022321E07B68012283F8E1
:103ED0003C207B681B689A687B681B6822F00102A3
:103EE0009A607B681B689B6803F00103002B09D173
:103EF0007B681B6C23F4885323F0010343F0010219
:103F00007B681A647B68002283F83C2000231846F3
:103F10000C37BD465DF8047B704780B584B000AFB8
:103F2000786039600023FB607B681B689B6803F442
:103F30008063B3F5806F13D17B681B689B6803F4C3
:103F40008073B3F5807F0BD17B681B6C43F020023C
:103F50007B681A647B68002283F83C20012363E0BD
:103F6000FFF780FEF86021E03B68B3F1FF3F1DD012
:103F70003B68002B07D0FFF775FE0246FB68D31A9B
:103F80003A689A4212D27B681B681B6803F00203EE
:103F9000022B0BD07B681B6C43F004027B681A6415
:103FA0007B68002283F83C2003233DE07B681B688C
:103FB0001B6803F00203022BD6D17B681B686FF0ED
:103FC00012021A607B681B6C43F400727B681A64EF
:103FD0007B681B689B6803F04053002B23D17B68F0
:103FE0001B7E002B1FD17B681B68DB6A03F4700308
:103FF000002B06D07B681B689B6803F48063002B52
:1040000011D17B681B6C23F480727B681A647B6817
:104010001B6C03F48053002B05D17B681B6C43F0B1
:1040200001027B681A64002318461037BD4680BD24
:1040300080B483B000AF78607B681B68DB6C184687
:104040000C37BD465DF8047B7047000080B485B036
:1040500000AF786039600023BB607B6893F83C3028
:10406000012B01D1022305E17B68012283F83C206A
:104070003B681B68092B25D97B681B68D9683B689E
:104080001B689BB21A4613465B0013441E3B072273
:1040900002FA03F3DA437B681B680A40DA607B6844
:1040A0001B68D9683B689A683B681B689BB21846D6
:1040B00003465B0003441E3B9A407B681B680A432F
:1040C000DA6022E07B681B6819693B681B689BB259
:1040D0001A4613465B001344072202FA03F3DA433D
:1040E0007B681B680A401A617B681B6819693B681A
:1040F0009A683B681B689BB2184603465B00034402
:104100009A407B681B680A431A613B685B68062B10
:1041100024D87B681B68596B3B685A6813469B0020
:104120001344053B1F2202FA03F3DA437B681B6842
:104130000A405A637B681B68596B3B681B689BB2DB
:1041400018463B685A6813469B001344053B00FA27
:1041500003F27B681B680A435A634CE03B685B6868
:104160000C2B24D87B681B68196B3B685A68134674
:104170009B001344233B1F2202FA03F3DA437B68BC
:104180001B680A401A637B681B68196B3B681B68D5
:104190009BB218463B685A6813469B001344233B66
:1041A00000FA03F27B681B680A431A6323E07B680A
:1041B0001B68D96A3B685A6813469B001344413B0D
:1041C0001F2202FA03F3DA437B681B680A40DA62B3
:1041D0007B681B68D96A3B681B689BB218463B68C2
:1041E0005A6813469B001344413B00FA03F27B6874
:1041F0001B680A43DA62224BFB607B681B68214A1A
:10420000934209D13B681B68122B05D1FB685B68A0
:1042100043F48002FB685A607B681B68194A93422A
:1042200023D13B681B68102B03D03B681B68112B04
:104230001BD1FB685B6843F40002FB685A603B6873
:104240001B68102B11D1104B1B68104AA2FB0323D3
:104250009A0C13469B0013445B00BB6002E0BB68F2
:10426000013BBB60BB68002BF9D17B68002283F85F
:104270003C20002318461437BD465DF8047B704788
:1042800000230140002001400400002083DE1B4386
:1042900080B485B000AF7860794BFB60FB685B68E9
:1042A00023F44032FB685A60FB685A687B685B689D
:1042B0001A43FB685A607B681B685A687B681B68F6
:1042C00022F480725A607B681B6859687B681B699E
:1042D0001A027B681B680A435A607B681B685A682D
:1042E0007B681B6822F040725A607B681B685968C3
:1042F0007B689A687B681B680A435A607B681B6806
:104300009A687B681B6822F400629A607B681B686D
:1043100099687B68DA687B681B680A439A607B68E7
:104320009B6A584A934222D07B681B689A687B68D4
:104330001B6822F070629A607B681B6899687B68D2
:104340009A6A7B681B680A439A607B681B689A6854
:104350007B681B6822F040529A607B681B689968F2
:104360007B68DA6A7B681B680A439A600FE07B68A7
:104370001B689A687B681B6822F070629A607B6891
:104380001B689A687B681B6822F040529A607B68C1
:104390001B689A687B681B6822F002029A607B683F
:1043A0001B6899687B681B7E5A007B681B680A4300
:1043B0009A607B6893F82030002B1BD07B681B68C9
:1043C0005A687B681B6842F400625A607B681B680D
:1043D0005A687B681B6822F460425A607B681B68DD
:1043E00059687B685B6A013B5A037B681B680A4318
:1043F0005A6007E07B681B685A687B681B6822F478
:1044000000625A607B681B68DA6A7B681B6822F46A
:104410007002DA627B681B68D96A7B68DB69013BE2
:104420001A057B681B680A43DA627B681B689A6816
:104430007B681B6822F400729A607B681B6899682D
:104440007B6893F830305A027B681B680A439A6095
:104450007B681B689A687B681B6822F480629A609C
:104460007B681B6899687B685B699A027B681B683C
:104470000A439A6000BF1437BD465DF8047B70475D
:10448000002301400100000F80B485B000AF7860C8
:104490007B6803F00703FB600C4BDB68BB60BA680A
:1044A0004FF6FF031340BB60FB681A02BB6813435F
:1044B00043F0BF6343F40033BB60044ABB68D3607E
:1044C00000BF1437BD465DF8047B704700ED00E087
:1044D00080B400AF044BDB681B0A03F007031846E7
:1044E000BD465DF8047B704700ED00E080B483B00A
:1044F00000AF0346FB7197F90730002B0BDBFB790C
:1045000003F01F02074997F907305B09012000FA01
:1045100002F241F8232000BF0C37BD465DF8047B52
:10452000704700BF00E100E080B483B000AF0346F5
:104530003960FB7197F90730002B0ADB3B68DAB270
:104540000C4997F907301201D2B20B4483F80023CB
:104550000AE03B68DAB20849FB7903F00F03043B39
:104560001201D2B20B441A7600BF0C37BD465DF87B
:10457000047B704700E100E000ED00E080B489B00A
:1045800000AFF860B9607A60FB6803F00703FB6175
:10459000FB69C3F10703042B28BF0423BB61FB693C
:1045A0000433062B02D9FB69033B00E000237B6147
:1045B0004FF0FF32BB6902FA03F3DA43BB681A40DB
:1045C0007B699A404FF0FF317B6901FA03F3D943CD
:1045D0007B680B40134318462437BD465DF8047BC7
:1045E0007047000080B582B000AF78607B68013B07
:1045F000B3F1807F01D301230FE00A4A7B68013BBE
:1046000053600F214FF0FF30FFF78EFF054B002264
:104610009A60044B07221A60002318460837BD46EB
:1046200080BD00BF10E000E080B582B000AF7860D0
:104630007868FFF729FF00BF0837BD4680BD80B509
:1046400086B000AF0346B9607A60FB7300237B61DC
:10465000FFF73EFF78617A68B9687869FFF78EFFE7
:10466000024697F90F3011461846FFF75DFF00BF6D
:104670001837BD4680BD80B582B000AF0346FB71E0
:1046800097F907301846FFF731FF00BF0837BD46DE
:1046900080BD80B582B000AF78607868FFF7A2FF78
:1046A000034618460837BD4680BD80B584B000AFCC
:1046B00078607B689B6DFB60FFF7D4FAB8607B681D
:1046C00093F83530DBB2022B08D07B6880225A6524
:1046D0007B68002283F83420012352E07B681B684A
:1046E0001A687B681B6822F016021A607B681B68D8
:1046F0005A697B681B6822F080025A617B681B6CD8
:10470000002B03D17B689B6C002B07D07B681B6858
:104710001A687B681B6822F008021A607B681B68B5
:104720001A687B681B6822F001021A6013E0FFF729
:1047300099FA0246BB68D31A052B0CD97B68202254
:104740005A657B68032283F835207B68002283F852
:104750003420032315E07B681B681B6803F001030A
:10476000002BE4D17B68DB6D3F229A40FB689A60A6
:104770007B68012283F835207B68002283F834208F
:10478000002318461037BD4680BD80B483B000AF0B
:1047900078607B6893F83530DBB2022B04D07B68FD
:1047A00080225A6501230CE07B68052283F83520BE
:1047B0007B681B681A687B681B6822F001021A601C
:1047C000002318460C37BD465DF8047B7047000097
:1047D00080B489B000AF7860396000237B6100232A
:1047E0003B610023BB610023FB6159E10122FB69AE
:1047F00002FA03F37B613B681B687A6913403B61F3
:104800003A697B699A4240F048813B685B6803F0F3
:104810000303012B05D03B685B6803F00303022B05
:1048200030D17B689B68BB61FB695B00032202FAA5
:1048300003F3DB43BA691340BB613B68DA68FB6989
:104840005B0002FA03F3BA691343BB617B68BA6980
:104850009A607B685B68BB610122FB6902FA03F323
:10486000DB43BA691340BB613B685B681B0903F01B
:104870000102FB6902FA03F3BA691343BB617B6867
:10488000BA695A603B685B6803F00303032B17D0D7
:104890007B68DB68BB61FB695B00032202FA03F300
:1048A000DB43BA691340BB613B689A68FB695B00F4
:1048B00002FA03F3BA691343BB617B68BA69DA6031
:1048C0003B685B6803F00303022B23D1FB69DA0822
:1048D0007B68083253F82230BB61FB6903F00703A1
:1048E0009B000F2202FA03F3DB43BA691340BB615A
:1048F0003B681A69FB6903F007039B0002FA03F3A4
:10490000BA691343BB61FB69DA087B680832B9698D
:1049100043F822107B681B68BB61FB695B000322C4
:1049200002FA03F3DB43BA691340BB613B685B687F
:1049300003F00302FB695B0002FA03F3BA69134355
:10494000BB617B68BA691A603B685B6803F44033FB
:10495000002B00F0A2800023FB60574B5B6C564A93
:1049600043F480435364544B5B6C03F48043FB601B
:10497000FB68524AFB699B08023352F82330BB6143
:10498000FB6903F003039B000F2202FA03F3DB43EE
:10499000BA691340BB617B68494A934219D07B686E
:1049A000484A934213D07B68474A93420DD07B68B4
:1049B000464A934207D07B68454A934201D104237B
:1049C00008E0072306E0032304E0022302E00123BA
:1049D00000E00023FA6902F0030292009340BA69F2
:1049E0001343BB613549FB699B080233BA6941F83F
:1049F0002320384B9B68BB613B69DB43BA6913409A
:104A0000BB613B685B6803F48013002B03D0BA6979
:104A10003B691343BB612F4ABB6993602D4BDB6835
:104A2000BB613B69DB43BA691340BB613B685B68B0
:104A300003F40013002B03D0BA693B691343BB6135
:104A4000244ABB69D360234B5B68BB613B69DB4392
:104A5000BA691340BB613B685B6803F40033002B09
:104A600003D0BA693B691343BB611A4ABB695360FF
:104A7000184B1B68BB613B69DB43BA691340BB61E0
:104A80003B685B6803F48033002B03D0BA693B6951
:104A90001343BB610F4ABB691360FB690133FB61C0
:104AA000FB690F2B7FF6A2AE00BF00BF2437BD46C7
:104AB0005DF8047B704700BF0038024000380140B9
:104AC000000002400004024000080240000C0240C6
:104AD00000100240003C014080B485B000AF786017
:104AE0000B467B807B681A697B881340002B02D0C1
:104AF0000123FB7301E00023FB73FB7B1846143793
:104B0000BD465DF8047B704780B483B000AF786029
:104B10000B467B8013467B707B78002B03D07A8812
:104B20007B689A6103E07B881A047B689A6100BF06
:104B30000C37BD465DF8047B704780B485B000AF8C
:104B400078600B467B807B685B69FB607A88FB68DA
:104B500013401A04FB68D9437B880B401A437B68D7
:104B60009A6100BF1437BD465DF8047B70470000B2
:104B700080B582B000AF0346FB80084B5A69FB88C2
:104B80001340002B06D0054AFB885361FB8818466A
:104B9000FEF760FA00BF0837BD4680BD003C01400B
:104BA00080B586B000AF78607B68002B01D101230F
:104BB00067E27B681B6803F00103002B75D0884B0C
:104BC0009B6803F00C03042B0CD0854B9B6803F00F
:104BD0000C03082B12D1824B5B6803F48003B3F5FE
:104BE000800F0BD17E4B1B6803F40033002B5BD08E
:104BF0007B685B68002B57D1012342E27B685B68CE
:104C0000B3F5803F06D1764B1B68754A43F4803379
:104C100013601DE07B685B68B3F5A02F0CD1704B6F
:104C20001B686F4A43F4802313606D4B1B686C4A0A
:104C300043F4803313600BE0694B1B68684A23F42C
:104C400080331360664B1B68654A23F4802313602E
:104C50007B685B68002B13D0FFF704F8386108E02D
:104C6000FFF700F802463B69D31A642B01D90323EE
:104C700007E25B4B1B6803F40033002BF0D014E019
:104C8000FEF7F0FF386108E0FEF7ECFF02463B69F3
:104C9000D31A642B01D90323F3E1514B1B6803F4AE
:104CA0000033002BF0D100E000BF7B681B6803F0ED
:104CB0000203002B63D04A4B9B6803F00C03002BCC
:104CC0000BD0474B9B6803F00C03082B1CD1444BC3
:104CD0005B6803F48003002B16D1414B1B6803F083
:104CE0000203002B05D07B68DB68012B01D0012378
:104CF000C7E13B4B1B6823F0F8027B681B69DB00B4
:104D0000374913430B603AE07B68DB68002B20D007
:104D1000344B01221A60FEF7A5FF386108E0FEF768
:104D2000A1FF02463B69D31A022B01D90323A8E154
:104D30002B4B1B6803F00203002BF0D0284B1B68A1
:104D400023F0F8027B681B69DB00254913430B60E5
:104D500015E0244B00221A60FEF784FF386108E05A
:104D6000FEF780FF02463B69D31A022B01D90323C9
:104D700087E11B4B1B6803F00203002BF0D17B681B
:104D80001B6803F00803002B36D07B685B69002B9F
:104D900016D0154B01221A60FEF764FF386108E057
:104DA000FEF760FF02463B69D31A022B01D90323A9
:104DB00067E10B4B5B6F03F00203002BF0D01BE0AD
:104DC000094B00221A60FEF74DFF38610EE0FEF736
:104DD00049FF02463B69D31A022B07D9032350E14E
:104DE0000038024000004742800E4742884B5B6F0C
:104DF00003F00203002BEAD17B681B6803F0040375
:104E0000002B00F097800023FB75814B1B6C03F097
:104E10008053002B0FD10023BB607D4B1B6C7C4A61
:104E200043F0805313647A4B1B6C03F08053BB60D8
:104E3000BB680123FB75774B1B6803F48073002B61
:104E400018D1744B1B68734A43F480731360FEF7E8
:104E500009FF386108E0FEF705FF02463B69D31AF7
:104E6000022B01D903230CE16A4B1B6803F4807306
:104E7000002BF0D07B689B68012B06D1644B1B6F25
:104E8000634A43F0010313671CE07B689B68052BB2
:104E90000CD15F4B1B6F5E4A43F0040313675C4BFE
:104EA0001B6F5B4A43F0010313670BE0584B1B6F0A
:104EB000574A23F001031367554B1B6F544A23F0E5
:104EC000040313677B689B68002B15D0FEF7CAFEAE
:104ED00038610AE0FEF7C6FE02463B69D31A41F28A
:104EE0008832934201D90323CBE0494B1B6F03F077
:104EF0000203002BEED014E0FEF7B4FE38610AE0A6
:104F0000FEF7B0FE02463B69D31A41F28832934263
:104F100001D90323B5E03E4B1B6F03F00203002BC6
:104F2000EED1FB7D012B05D1394B1B6C384A23F0A8
:104F3000805313647B689B69002B00F0A180344B85
:104F40009B6803F00C03082B5CD07B689B69022BE9
:104F500041D1314B00221A60FEF784FE386108E02F
:104F6000FEF780FE02463B69D31A022B01D90323C8
:104F700087E0274B1B6803F00073002BF0D17B68A0
:104F8000DA697B681B6A1A437B685B6A9B011A4378
:104F90007B689B6A5B08013B1B041A437B68DB6AE6
:104FA0001B061B4913434B601B4B01221A60FEF783
:104FB00059FE386108E0FEF755FE02463B69D31AF8
:104FC000022B01D903235CE0114B1B6803F0007333
:104FD000002BF0D054E0104B00221A60FEF742FE86
:104FE000386108E0FEF73EFE02463B69D31A022B09
:104FF00001D9032345E0064B1B6803F00073002B27
:10500000F0D13DE07B689B69012B07D1012338E09B
:105010000038024000700040600047421B4B5B6854
:10502000FB607B689B69012B28D0FB6803F480023E
:105030007B68DB699A4221D1FB6803F03F027B6801
:105040001B6A9A421AD1FA6847F6C07313407A680D
:10505000526A9201934211D1FB6803F440327B689B
:105060009B6A5B08013B1B049A4207D1FB6803F073
:1050700070627B68DB6A1B069A4201D0012300E064
:10508000002318461837BD4680BD00BF00380240D7
:1050900080B584B000AF786039607B68002B01D1A7
:1050A0000123CCE0684B1B6803F007033A689A427F
:1050B0000CD9654B3A68D2B21A70634B1B6803F087
:1050C00007033A689A4201D00123B8E07B681B6865
:1050D00003F00203002B20D07B681B6803F004035D
:1050E000002B05D0594B9B68584A43F4E05393601A
:1050F0007B681B6803F00803002B05D0534B9B68AB
:10510000524A43F460439360504B9B6823F0F00293
:105110007B689B684D4913438B607B681B6803F079
:105120000103002B44D07B685B68012B07D1474B00
:105130001B6803F40033002B19D101237FE07B6847
:105140005B68022B03D07B685B68032B07D13F4B66
:105150001B6803F00073002B09D101236FE03B4B68
:105160001B6803F00203002B01D1012367E0374BDA
:105170009B6823F003027B685B68344913438B60B0
:10518000FEF770FDF8600AE0FEF76CFD0246FB6872
:10519000D31A41F28832934201D903234FE02B4BBB
:1051A0009B6803F00C027B685B689B009A42EBD122
:1051B000254B1B6803F007033A689A420CD2224B36
:1051C0003A68D2B21A70204B1B6803F007033A68A2
:1051D0009A4201D0012332E07B681B6803F004038C
:1051E000002B08D0194B9B6823F4E0527B68DB68E6
:1051F000164913438B607B681B6803F00803002B80
:1052000009D0124B9B6823F460427B681B69DB006A
:105210000E4913438B6000F021F802460B4B9B684C
:105220001B0903F00F030A49CB5C22FA03F3094A76
:105230001360094B1B681846FEF7D0FC0023184684
:105240001037BD4680BD00BF003C02400038024020
:1052500070FF000804000020080000202DE9B04F76
:1052600090B000AF00237B630023FB6300233B630C
:105270000023BB63594B9B6803F00C03082B0DD034
:10528000082B00F2A180002B02D0042B03D09BE05E
:10529000534BBB639BE0534BBB6398E04F4B5B6846
:1052A00003F03F037B634D4B5B6803F48003002BEB
:1052B00028D04A4B5B689B0900223B627A623B6ABA
:1052C000C3F308000021474B03FB01F2002300FB5E
:1052D00003F31344434AA0FB0212FA620A46BA627D
:1052E000FA6A1344FB627B6B0022BB61FA61D7E967
:1052F0000623D7E90A01FBF7CFFC02460B4613460B
:10530000FB6353E0354B5B689B0900223B617A618C
:105310003B69C3F3080A4FF0000B52465B464FF05F
:1053200000004FF00001590141EAD26150010246EC
:105330000B46B2EB0A0863EB0B094FF000024FF08B
:1053400000034FEA891343EA98634FEA8812B2EBED
:10535000080463EB09054FF000024FF00003EB0077
:1053600043EA5473E20014461D4614EB0A033B6003
:1053700045EB0B037B604FF000024FF00003D7E9D1
:10538000004529468B02214643EA915321468A0271
:10539000104619467B6B0022BB60FA60D7E90223F6
:1053A000FBF77AFC02460B461346FB630B4B5B682C
:1053B0001B0C03F0030301335B003B63FA6B3B6B95
:1053C000B2FBF3F3BB6302E0054BBB6300BFBB6BF7
:1053D00018464037BD46BDE8B08F00BF00380240D8
:1053E0000024F40040787D0180B400AF034B1B68BB
:1053F0001846BD465DF8047B704700BF04000020DE
:1054000080B500AFFFF7F0FF0246054B9B689B0A93
:1054100003F007030349CB5C22FA03F3184680BD6F
:105420000038024080FF000880B500AFFFF7DCFFC6
:105430000246054B9B685B0B03F007030349CB5CFB
:1054400022FA03F3184680BD0038024080FF0008AE
:1054500080B582B000AF78607B68002B01D101235A
:105460007BE07B685B6A002B08D17B685B68B3F5E7
:10547000827F09D07B680022DA6105E07B68002228
:105480001A617B6800225A617B6800229A627B68FD
:1054900093F85130DBB2002B06D17B68002283F8F1
:1054A00050207868FEF720F87B68022283F85120AC
:1054B0007B681B681A687B681B6822F040021A60D0
:1054C0007B685B6803F482727B689B6803F4044327
:1054D0001A437B68DB6803F400631A437B681B692B
:1054E00003F002031A437B685B6903F001031A436C
:1054F0007B689B6903F400731A437B68DB6903F0E4
:1055000038031A437B681B6A03F0800342EA0301F5
:105510007B689B6A03F400527B681B680A431A602D
:105520007B689B691B0C03F004017B685B6A03F0DA
:1055300010027B681B680A435A607B681B68DA6943
:105540007B681B6822F40062DA617B6800225A657E
:105550007B68012283F85120002318460837BD4696
:1055600080BD000080B487B000AFF860B9607A6099
:105570007B800023FB75FB6893F85030012B01D131
:10558000022375E0FB68012283F85020FB6893F842
:105590005130BB75FB685B683B61BB7D012B0DD057
:1055A0003B69B3F5827F06D1FB689B68002B02D173
:1055B000BB7D042B02D00223FB7554E0BB68002B9B
:1055C00005D07B68002B02D07B88002B02D1012301
:1055D000FB7548E0FB6893F85130DBB2042B03D035
:1055E000FB68052283F85120FB6800225A65FB689E
:1055F000BA681A63FB687A889A86FB687A88DA86C2
:10560000FB687A689A63FB687A889A87FB687A886D
:10561000DA87FB68DB68002B06D0FB68174A1A6440
:10562000FB68174A5A6405E0FB68164A1A64FB686F
:10563000154A5A64FB681B685A68FB681B6842F08D
:10564000E0025A60FB681B681B6803F04003402BB4
:1056500008D0FB681B681A68FB681B6842F04002B0
:105660001A6000E000BFFB68002283F85020FB7D39
:1056700018461C37BD465DF8047B7047A1590008E9
:10568000015A0008DD5800084159000880B588B06B
:1056900000AF78607B681B685B68FB617B681B6898
:1056A0009B68BB61BB699B0903F00103002B0FD111
:1056B000BB6903F00103002B0AD0FB699B0903F0CF
:1056C0000103002B04D07B681B6C78689847D7E0F7
:1056D000BB695B0803F00103002B0AD0FB69DB09FF
:1056E00003F00103002B04D07B685B6C786898475B
:1056F000C6E0BB695B0903F00103002B0CD1BB6959
:105700009B0903F00103002B06D1BB691B0A03F0C0
:105710000103002B00F0B480FB695B0903F0010377
:10572000002B00F0AD80BB699B0903F00103002B47
:1057300023D07B6893F85130DBB2032B11D07B6808
:105740005B6D43F004027B685A6500237B617B68D4
:105750001B68DB687B617B681B689B687B617B697E
:105760000BE000233B617B681B68DB683B617B6867
:105770001B689B683B613B6982E0BB695B0903F086
:105780000103002B14D07B685B6D43F001027B6842
:105790005A650023FB607B681B689B68FB607B6825
:1057A0001B681A687B681B6822F040021A60FB685D
:1057B000BB691B0A03F00103002B0CD07B685B6DF7
:1057C00043F008027B685A650023BB607B681B6856
:1057D0009B68BB60BB687B685B6D002B4FD07B68B0
:1057E0001B685A687B681B6822F0E0025A607B687D
:1057F000012283F85120FB6903F00203002B04D13E
:10580000FB6903F00103002B34D07B681B685A68E6
:105810007B681B6822F003025A607B68DB6C002BFC
:1058200011D07B68DB6C184A1A657B68DB6C184604
:10583000FEF7ABFF0346002B05D07B685B6D43F0A2
:1058400040027B685A657B689B6C002B16D07B6896
:105850009B6C0D4A1A657B689B6C1846FEF795FF9A
:105860000346002B0AD07B685B6D43F040027B68E7
:105870005A6503E0786800F013F800E000BF00BF4D
:105880002037BD4680BD00BFB558000880B483B046
:1058900000AF786000BF0C37BD465DF8047B7047F1
:1058A00080B483B000AF786000BF0C37BD465DF8B0
:1058B000047B704780B584B000AF78607B689B6BD9
:1058C000FB60FB680022DA87FB680022DA86F86852
:1058D000FFF7E6FF00BF1037BD4680BD80B582B040
:1058E00000AF78607B681B6803F10C027B689B6BE0
:1058F0001278D2B21A707B689B6B5A1C7B689A63D1
:105900007B68DB8F9BB2013B9AB27B68DA877B684E
:10591000DB8F9BB2002B0FD17B681B685A687B68BA
:105920001B6822F060025A607B68DB8E9BB2002B02
:1059300002D1786800F05EF900BF0837BD4680BD2F
:1059400080B582B000AF78607B681A6B7B681B689B
:105950000C3312781A707B681B6B5A1C7B681A63B5
:105960007B68DB8E9BB2013B9AB27B68DA867B68F0
:10597000DB8E9BB2002B0FD17B681B685A687B685B
:105980001B6822F080025A607B68DB8F9BB2002B81
:1059900002D1786800F02EF900BF0837BD4680BDFF
:1059A00080B582B000AF78607B681B68DA687B687E
:1059B0009B6B92B21A807B689B6B9A1C7B689A6384
:1059C0007B68DB8F9BB2013B9AB27B68DA877B688E
:1059D000DB8F9BB2002B0FD17B681B685A687B68FA
:1059E0001B6822F040025A607B68DB8E9BB2002B62
:1059F00002D1786800F0FEF800BF0837BD4680BDD0
:105A000080B582B000AF78607B681B6B1A887B68BA
:105A10001B68DA607B681B6B9A1C7B681A637B6867
:105A2000DB8E9BB2013B9AB27B68DA867B68DB8EA9
:105A30009BB2002B0FD17B681B685A687B681B6880
:105A400022F080025A607B68DB8F9BB2002B02D170
:105A5000786800F0CFF800BF0837BD4680BD000071
:105A600080B588B000AFF860B9603B601346FB7149
:105A7000FEF7F8F80246BB6A9B1A3A681344FB61CA
:105A8000FEF7F0F8B861394B1B685B011B0DFA6932
:105A900002FB03F37B6154E03B68B3F1FF3F50D05E
:105AA000FEF7E0F80246BB69D31AFA699A4202D9B6
:105AB000FB69002B3DD1FB681B685A68FB681B68BB
:105AC00022F0E0025A60FB685B68B3F5827F11D177
:105AD000FB689B68B3F5004F04D0FB689B68B3F587
